{"contracts/Loyalty.sol":{"Loyalty":{"abi":[{"inputs":[],"stateMutability":"nonpayable","type":"constructor"},{"anonymous":false,"inputs":[{"indexed":false,"internalType":"address","name":"from","type":"address"},{"indexed":false,"internalType":"address","name":"receiver","type":"address"},{"indexed":false,"internalType":"uint256","name":"amount","type":"uint256"},{"indexed":false,"internalType":"string","name":"message","type":"string"},{"indexed":false,"internalType":"uint256","name":"timestamp","type":"uint256"},{"indexed":false,"internalType":"string","name":"keyword","type":"string"}],"name":"Transfer","type":"event"},{"inputs":[{"internalType":"address","name":"user_address","type":"address"},{"internalType":"uint256","name":"amazonPoint","type":"uint256"},{"internalType":"uint256","name":"flipkartPoint","type":"uint256"},{"internalType":"uint256","name":"myntraPoint","type":"uint256"}],"name":"addUser","outputs":[],"stateMutability":"payable","type":"function"},{"inputs":[{"internalType":"string","name":"source_company_name","type":"string"},{"internalType":"string","name":"destination_company_name","type":"string"},{"internalType":"uint256","name":"points_to_convert","type":"uint256"},{"internalType":"string","name":"TimeStamp","type":"string"}],"name":"convert_reward_point","outputs":[],"stateMutability":"payable","type":"function"},{"inputs":[],"name":"customerAddFunction","outputs":[{"internalType":"uint256","name":"","type":"uint256"}],"stateMutability":"nonpayable","type":"function"},{"inputs":[],"name":"getCustomerRequestsArray","outputs":[{"internalType":"address[]","name":"","type":"address[]"}],"stateMutability":"view","type":"function"},{"inputs":[],"name":"get_All_Transactions","outputs":[{"components":[{"internalType":"address","name":"sender_address","type":"address"},{"internalType":"address","name":"receiver_address","type":"address"},{"internalType":"string","name":"source_company_name","type":"string"},{"internalType":"string","name":"destination_company_name","type":"string"},{"internalType":"uint256","name":"reward_points","type":"uint256"},{"internalType":"string","name":"timestamp","type":"string"}],"internalType":"struct Loyalty.Transaction[]","name":"","type":"tuple[]"}],"stateMutability":"view","type":"function"},{"inputs":[],"name":"get_address","outputs":[{"internalType":"address","name":"","type":"address"}],"stateMutability":"view","type":"function"},{"inputs":[],"name":"get_allPoints","outputs":[{"internalType":"uint256[3]","name":"","type":"uint256[3]"}],"stateMutability":"view","type":"function"},{"inputs":[],"name":"get_amazonPoint","outputs":[{"internalType":"uint256","name":"","type":"uint256"}],"stateMutability":"view","type":"function"},{"inputs":[],"name":"get_flipkartPoint","outputs":[{"internalType":"uint256","name":"","type":"uint256"}],"stateMutability":"view","type":"function"},{"inputs":[],"name":"get_myntraPoint","outputs":[{"internalType":"uint256","name":"","type":"uint256"}],"stateMutability":"view","type":"function"},{"inputs":[{"internalType":"address","name":"user_address","type":"address"}],"name":"get_user_index","outputs":[{"internalType":"uint256","name":"","type":"uint256"}],"stateMutability":"view","type":"function"},{"inputs":[],"name":"isOwner","outputs":[{"internalType":"bool","name":"","type":"bool"}],"stateMutability":"view","type":"function"},{"inputs":[],"name":"owner","outputs":[{"internalType":"address","name":"","type":"address"}],"stateMutability":"view","type":"function"},{"inputs":[],"name":"retrieve_user_index","outputs":[{"internalType":"uint256","name":"","type":"uint256"}],"stateMutability":"view","type":"function"},{"inputs":[{"internalType":"bytes","name":"data","type":"bytes"}],"name":"toString","outputs":[{"internalType":"string","name":"","type":"string"}],"stateMutability":"pure","type":"function"},{"inputs":[{"internalType":"address","name":"receiver","type":"address"},{"internalType":"string","name":"company_name","type":"string"},{"internalType":"uint256","name":"points_to_convert","type":"uint256"},{"internalType":"string","name":"TimeStamp","type":"string"}],"name":"transfer_reward_friend","outputs":[],"stateMutability":"payable","type":"function"},{"inputs":[],"name":"validate_User","outputs":[{"internalType":"bool","name":"","type":"bool"}],"stateMutability":"view","type":"function"}],"evm":{"bytecode":{"linkReferences":{},"object":"608060405234801561001057600080fd5b50600080546001600160a01b03191633179055611dd5806100326000396000f3fe6080604052600436106100fe5760003560e01c80638f32d59b11610095578063c51fe37411610064578063c51fe3741461026b578063ca6f12d11461027e578063d1815712146102a0578063d8e6513d146102c0578063fe37ebe5146102e257600080fd5b80638f32d59b1461020c578063a05ad4911461022c578063b2e36c9d14610241578063c36374f71461025657600080fd5b80636534d30c116100d15780636534d30c1461017957806371aad10d1461019e5780637c03c68a146101cb5780638da5cb5b146101ee57600080fd5b80630131222f146101035780630f8694851461012f5780631f89665e146101515780632a7c698514610166575b600080fd5b34801561010f57600080fd5b50335b6040516001600160a01b0390911681526020015b60405180910390f35b34801561013b57600080fd5b506101446102f7565b60405161012691906118e5565b61016461015f366004611a68565b61078f565b005b610164610174366004611b11565b610b74565b34801561018557600080fd5b5061018e610ebb565b6040519015158152602001610126565b3480156101aa57600080fd5b506101be6101b9366004611b4d565b610ee8565b6040516101269190611b9e565b3480156101d757600080fd5b506101e0611101565b604051908152602001610126565b3480156101fa57600080fd5b506000546001600160a01b0316610112565b34801561021857600080fd5b506000546001600160a01b0316331461018e565b34801561023857600080fd5b506101e061115d565b34801561024d57600080fd5b506101e06111b9565b34801561026257600080fd5b506101e06112f5565b610164610279366004611bb1565b61135c565b34801561028a57600080fd5b5061029361157a565b6040516101269190611bea565b3480156102ac57600080fd5b506101e06102bb366004611c1b565b61161c565b3480156102cc57600080fd5b506102d5611685565b6040516101269190611c36565b3480156102ee57600080fd5b506101e06116e7565b6060600080339050600061033c82604051602001610328919060609190911b6001600160601b031916815260140190565b604051602081830303815290604052610ee8565b905060608060005b60025481101561043c576103a26002828154811061036457610364611c83565b600091825260209182902060069091020154604051610328926001600160a01b03909216910160609190911b6001600160601b031916815260140190565b92506103fb600282815481106103ba576103ba611c83565b600091825260209182902060016006909202010154604051610328926001600160a01b03909216910160609190911b6001600160601b031916815260140190565b91506104078484611743565b8061041757506104178483611743565b1561042a578561042681611caf565b9650505b8061043481611caf565b915050610344565b5060008567ffffffffffffffff811115610458576104586119b5565b6040519080825280602002602001820160405280156104d457816020015b6104c16040518060c0016040528060006001600160a01b0316815260200160006001600160a01b03168152602001606081526020016060815260200160008152602001606081525090565b8152602001906001900390816104765790505b5090506000805b600254811015610782576104fb6002828154811061036457610364611c83565b9450610513600282815481106103ba576103ba611c83565b935061051f8686611743565b8061052f575061052f8685611743565b15610770576002818154811061054757610547611c83565b60009182526020918290206040805160c081018252600690930290910180546001600160a01b039081168452600182015416938301939093526002830180549293929184019161059690611cca565b80601f01602080910402602001604051908101604052809291908181526020018280546105c290611cca565b801561060f5780601f106105e45761010080835404028352916020019161060f565b820191906000526020600020905b8154815290600101906020018083116105f257829003601f168201915b5050505050815260200160038201805461062890611cca565b80601f016020809104026020016040519081016040528092919081815260200182805461065490611cca565b80156106a15780601f10610676576101008083540402835291602001916106a1565b820191906000526020600020905b81548152906001019060200180831161068457829003601f168201915b50505050508152602001600482015481526020016005820180546106c490611cca565b80601f01602080910402602001604051908101604052809291908181526020018280546106f090611cca565b801561073d5780601f106107125761010080835404028352916020019161073d565b820191906000526020600020905b81548152906001019060200180831161072057829003601f168201915b50505050508152505083838061075290611caf565b94508151811061076457610764611c83565b60200260200101819052505b8061077a81611caf565b9150506104db565b5090979650505050505050565b600061079a3361161c565b6001549091508111156107c85760405162461bcd60e51b81526004016107bf90611d05565b60405180910390fd5b6107f0856040518060400160405280600681526020016530b6b0bd37b760d11b815250611743565b1561083457826001828154811061080957610809611c83565b906000526020600020906004020160010160008282546108299190611d2f565b909155506108fe9050565b61085e8560405180604001604052806008815260200167199b1a5c1ad85c9d60c21b815250611743565b1561089757826001828154811061087757610877611c83565b906000526020600020906004020160020160008282546108299190611d2f565b6108bf85604051806040016040528060068152602001656d796e74726160d01b815250611743565b156108fe5782600182815481106108d8576108d8611c83565b906000526020600020906004020160030160008282546108f89190611d2f565b90915550505b610926846040518060400160405280600681526020016530b6b0bd37b760d11b815250611743565b1561096a57826001828154811061093f5761093f611c83565b9060005260206000209060040201600101600082825461095f9190611d46565b90915550610a349050565b6109948460405180604001604052806008815260200167199b1a5c1ad85c9d60c21b815250611743565b156109cd5782600182815481106109ad576109ad611c83565b9060005260206000209060040201600201600082825461095f9190611d46565b6109f584604051806040016040528060068152602001656d796e74726160d01b815250611743565b15610a34578260018281548110610a0e57610a0e611c83565b90600052602060002090600402016003016000828254610a2e9190611d46565b90915550505b6040805160c081018252338082526020808301918252928201888152606083018890526080830187905260a0830186905260028054600181018255600091909152835160069091027f405787fa12a823e0f2b7631cc41b3ba8828b3321ca811111fa75cd3aa3bb5ace810180546001600160a01b039384166001600160a01b031991821617825594517f405787fa12a823e0f2b7631cc41b3ba8828b3321ca811111fa75cd3aa3bb5acf83018054919094169516949094179091559051805193948594610b27937f405787fa12a823e0f2b7631cc41b3ba8828b3321ca811111fa75cd3aa3bb5ad00192909101906117e5565b5060608201518051610b439160038401916020909101906117e5565b506080820151600482015560a08201518051610b699160058401916020909101906117e5565b505050505050505050565b6000610b7f3361161c565b90506000610b8c8661161c565b9050610bb6856040518060400160405280600681526020016530b6b0bd37b760d11b815250611743565b15610c35578360018381548110610bcf57610bcf611c83565b90600052602060002090600402016001016000828254610bef9190611d2f565b925050819055508360018281548110610c0a57610c0a611c83565b90600052602060002090600402016001016000828254610c2a9190611d46565b90915550610d759050565b610c5f8560405180604001604052806008815260200167199b1a5c1ad85c9d60c21b815250611743565b15610cd3578360018381548110610c7857610c78611c83565b90600052602060002090600402016002016000828254610c989190611d2f565b925050819055508360018281548110610cb357610cb3611c83565b90600052602060002090600402016002016000828254610c2a9190611d46565b610cfb85604051806040016040528060068152602001656d796e74726160d01b815250611743565b15610d75578360018381548110610d1457610d14611c83565b90600052602060002090600402016003016000828254610d349190611d2f565b925050819055508360018281548110610d4f57610d4f611c83565b90600052602060002090600402016003016000828254610d6f9190611d46565b90915550505b6040805160c0810182523381526001600160a01b038881166020808401918252938301898152606084018a90526080840189905260a0840188905260028054600181018255600091909152845160069091027f405787fa12a823e0f2b7631cc41b3ba8828b3321ca811111fa75cd3aa3bb5ace810180549286166001600160a01b031993841617815593517f405787fa12a823e0f2b7631cc41b3ba8828b3321ca811111fa75cd3aa3bb5acf8201805491909616921691909117909355518051939485949293610e6d937f405787fa12a823e0f2b7631cc41b3ba8828b3321ca811111fa75cd3aa3bb5ad090910192909101906117e5565b5060608201518051610e899160038401916020909101906117e5565b506080820151600482015560a08201518051610eaf9160058401916020909101906117e5565b50505050505050505050565b600080610ec73361161c565b600154909150811015610edc57600191505090565b600091505090565b5090565b60408051808201909152601081526f181899199a1a9b1b9c1cb0b131b232b360811b6020820152815160609190600090610f23906002611d5e565b610f2e906002611d46565b67ffffffffffffffff811115610f4657610f466119b5565b6040519080825280601f01601f191660200182016040528015610f70576020820181803683370190505b509050600360fc1b81600081518110610f8b57610f8b611c83565b60200101906001600160f81b031916908160001a905350600f60fb1b81600181518110610fba57610fba611c83565b60200101906001600160f81b031916908160001a90535060005b84518110156110f957826004868381518110610ff257610ff2611c83565b016020015182516001600160f81b031990911690911c60f81c90811061101a5761101a611c83565b01602001516001600160f81b03191682611035836002611d5e565b611040906002611d46565b8151811061105057611050611c83565b60200101906001600160f81b031916908160001a9053508285828151811061107a5761107a611c83565b602091010151815160f89190911c600f1690811061109a5761109a611c83565b01602001516001600160f81b031916826110b5836002611d5e565b6110c0906003611d46565b815181106110d0576110d0611c83565b60200101906001600160f81b031916908160001a905350806110f181611caf565b915050610fd4565b509392505050565b60008061110d3361161c565b6001549091508111156111325760405162461bcd60e51b81526004016107bf90611d05565b6001818154811061114557611145611c83565b90600052602060002090600402016002015491505090565b6000806111693361161c565b60015490915081111561118e5760405162461bcd60e51b81526004016107bf90611d05565b600181815481106111a1576111a1611c83565b90600052602060002090600402016003015491505090565b60003381805b60015481101561121d57826001600160a01b0316600182815481106111e6576111e6611c83565b60009182526020909120600490910201546001600160a01b0316141561120b5761121d565b8061121581611caf565b9150506111bf565b600154811015611231576001935050505090565b60035482101561128a57826001600160a01b03166003838154811061125857611258611c83565b6000918252602090912001546001600160a01b031614156112785761128a565b8161128281611caf565b925050611231565b60035482101561129e576002935050505090565b50506003805460018101825560008290527fc2575a0e9e593c00f959f8c92f12db2869c3395a3b0502d05e2516446f71f85b0180546001600160a01b0319166001600160a01b039390931692909217909155919050565b6000805b60015481101561135757336001600160a01b03166001828154811061132057611320611c83565b60009182526020909120600490910201546001600160a01b0316141561134557919050565b8061134f81611caf565b9150506112f9565b919050565b6000546001600160a01b031633146113c75760405162461bcd60e51b815260206004820152602860248201527f46756e6374696f6e2061636365737369626c65206f6e6c7920627920746865206044820152676f776e657220212160c01b60648201526084016107bf565b60006113d4600285611d7d565b905060006113e3600285611d7d565b905060006113f2600285611d7d565b604080516080810182526001600160a01b038a811682526020820187815292820186815260608301858152600180548082018255600091825285517fb10e2d527612073b26eecdfd717e6a320cf44b4afac2b0732d9fcbe2b7fa0cf6600490920291820180546001600160a01b031916919096161790945594517fb10e2d527612073b26eecdfd717e6a320cf44b4afac2b0732d9fcbe2b7fa0cf784015590517fb10e2d527612073b26eecdfd717e6a320cf44b4afac2b0732d9fcbe2b7fa0cf8830155517fb10e2d527612073b26eecdfd717e6a320cf44b4afac2b0732d9fcbe2b7fa0cf9909101559192505b60035481101561153957886001600160a01b03166003828154811061150757611507611c83565b6000918252602090912001546001600160a01b0316141561152757611539565b8061153181611caf565b9150506114e0565b600354811015610b69576003818154811061155657611556611c83565b600091825260209091200180546001600160a01b0319169055505050505050505050565b611582611865565b600061158d3361161c565b90506040518060600160405280600183815481106115ad576115ad611c83565b9060005260206000209060040201600101548152602001600183815481106115d7576115d7611c83565b90600052602060002090600402016002015481526020016001838154811061160157611601611c83565b90600052602060002090600402016003015481525091505090565b6000805b60015481101561167f57826001600160a01b03166001828154811061164757611647611c83565b60009182526020909120600490910201546001600160a01b0316141561166d5792915050565b8061167781611caf565b915050611620565b92915050565b606060038054806020026020016040519081016040528092919081815260200182805480156116dd57602002820191906000526020600020905b81546001600160a01b031681526001909101906020018083116116bf575b5050505050905090565b6000806116f33361161c565b6001549091508111156117185760405162461bcd60e51b81526004016107bf90611d05565b6001818154811061172b5761172b611c83565b90600052602060002090600402016001015491505090565b8151815160009184918491908114611761576000935050505061167f565b60005b818110156117d85782818151811061177e5761177e611c83565b602001015160f81c60f81b6001600160f81b0319168482815181106117a5576117a5611c83565b01602001516001600160f81b031916146117c657600094505050505061167f565b806117d081611caf565b915050611764565b5060019695505050505050565b8280546117f190611cca565b90600052602060002090601f0160209004810192826118135760008555611859565b82601f1061182c57805160ff1916838001178555611859565b82800160010185558215611859579182015b8281111561185957825182559160200191906001019061183e565b50610ee4929150611883565b60405180606001604052806003906020820280368337509192915050565b5b80821115610ee45760008155600101611884565b6000815180845260005b818110156118be576020818501810151868301820152016118a2565b818111156118d0576000602083870101525b50601f01601f19169290920160200192915050565b60006020808301818452808551808352604092508286019150828160051b87010184880160005b838110156119a757888303603f19018552815180516001600160a01b0390811685528882015116888501528681015160c08886018190529061195082870182611898565b9150506060808301518683038288015261196a8382611898565b92505050608080830151818701525060a080830151925085820381870152506119938183611898565b96890196945050509086019060010161190c565b509098975050505050505050565b634e487b7160e01b600052604160045260246000fd5b600067ffffffffffffffff808411156119e6576119e66119b5565b604051601f8501601f19908116603f01168101908282118183101715611a0e57611a0e6119b5565b81604052809350858152868686011115611a2757600080fd5b858560208301376000602087830101525050509392505050565b600082601f830112611a5257600080fd5b611a61838335602085016119cb565b9392505050565b60008060008060808587031215611a7e57600080fd5b843567ffffffffffffffff80821115611a9657600080fd5b611aa288838901611a41565b95506020870135915080821115611ab857600080fd5b611ac488838901611a41565b9450604087013593506060870135915080821115611ae157600080fd5b50611aee87828801611a41565b91505092959194509250565b80356001600160a01b038116811461135757600080fd5b60008060008060808587031215611b2757600080fd5b611b3085611afa565b9350602085013567ffffffffffffffff80821115611ab857600080fd5b600060208284031215611b5f57600080fd5b813567ffffffffffffffff811115611b7657600080fd5b8201601f81018413611b8757600080fd5b611b96848235602084016119cb565b949350505050565b602081526000611a616020830184611898565b60008060008060808587031215611bc757600080fd5b611bd085611afa565b966020860135965060408601359560600135945092505050565b60608101818360005b6003811015611c12578151835260209283019290910190600101611bf3565b50505092915050565b600060208284031215611c2d57600080fd5b611a6182611afa565b6020808252825182820181905260009190848201906040850190845b81811015611c775783516001600160a01b031683529284019291840191600101611c52565b50909695505050505050565b634e487b7160e01b600052603260045260246000fd5b634e487b7160e01b600052601160045260246000fd5b6000600019821415611cc357611cc3611c99565b5060010190565b600181811c90821680611cde57607f821691505b60208210811415611cff57634e487b7160e01b600052602260045260246000fd5b50919050565b60208082526010908201526f155cd95c88139bdd08105b1b1bddd95960821b604082015260600190565b600082821015611d4157611d41611c99565b500390565b60008219821115611d5957611d59611c99565b500190565b6000816000190483118215151615611d7857611d78611c99565b500290565b600082611d9a57634e487b7160e01b600052601260045260246000fd5b50049056fea264697066735822122087b37694107f588d1b376f1a62f882e9934c94a10ff312e3b31f781518fc207e64736f6c63430008090033","opcodes":"PUSH1 0x80 PUSH1 0x40 MSTORE CALLVALUE DUP1 ISZERO PUSH2 0x10 JUMPI PUSH1 0x0 DUP1 REVERT JUMPDEST POP PUSH1 0x0 DUP1 SLOAD PUSH1 0x1 PUSH1 0x1 PUSH1 0xA0 SHL SUB NOT AND CALLER OR SWAP1 SSTORE PUSH2 0x1DD5 DUP1 PUSH2 0x32 PUSH1 0x0 CODECOPY PUSH1 0x0 RETURN INVALID PUSH1 0x80 PUSH1 0x40 MSTORE PUSH1 0x4 CALLDATASIZE LT PUSH2 0xFE JUMPI PUSH1 0x0 CALLDATALOAD PUSH1 0xE0 SHR DUP1 PUSH4 0x8F32D59B GT PUSH2 0x95 JUMPI DUP1 PUSH4 0xC51FE374 GT PUSH2 0x64 JUMPI DUP1 PUSH4 0xC51FE374 EQ PUSH2 0x26B JUMPI DUP1 PUSH4 0xCA6F12D1 EQ PUSH2 0x27E JUMPI DUP1 PUSH4 0xD1815712 EQ PUSH2 0x2A0 JUMPI DUP1 PUSH4 0xD8E6513D EQ PUSH2 0x2C0 JUMPI DUP1 PUSH4 0xFE37EBE5 EQ PUSH2 0x2E2 JUMPI PUSH1 0x0 DUP1 REVERT JUMPDEST DUP1 PUSH4 0x8F32D59B EQ PUSH2 0x20C JUMPI DUP1 PUSH4 0xA05AD491 EQ PUSH2 0x22C JUMPI DUP1 PUSH4 0xB2E36C9D EQ PUSH2 0x241 JUMPI DUP1 PUSH4 0xC36374F7 EQ PUSH2 0x256 JUMPI PUSH1 0x0 DUP1 REVERT JUMPDEST DUP1 PUSH4 0x6534D30C GT PUSH2 0xD1 JUMPI DUP1 PUSH4 0x6534D30C EQ PUSH2 0x179 JUMPI DUP1 PUSH4 0x71AAD10D EQ PUSH2 0x19E JUMPI DUP1 PUSH4 0x7C03C68A EQ PUSH2 0x1CB JUMPI DUP1 PUSH4 0x8DA5CB5B EQ PUSH2 0x1EE JUMPI PUSH1 0x0 DUP1 REVERT JUMPDEST DUP1 PUSH4 0x131222F EQ PUSH2 0x103 JUMPI DUP1 PUSH4 0xF869485 EQ PUSH2 0x12F JUMPI DUP1 PUSH4 0x1F89665E EQ PUSH2 0x151 JUMPI DUP1 PUSH4 0x2A7C6985 EQ PUSH2 0x166 JUMPI JUMPDEST PUSH1 0x0 DUP1 REVERT JUMPDEST CALLVALUE DUP1 ISZERO PUSH2 0x10F JUMPI PUSH1 0x0 DUP1 REVERT JUMPDEST POP CALLER JUMPDEST PUSH1 0x40 MLOAD PUSH1 0x1 PUSH1 0x1 PUSH1 0xA0 SHL SUB SWAP1 SWAP2 AND DUP2 MSTORE PUSH1 0x20 ADD JUMPDEST PUSH1 0x40 MLOAD DUP1 SWAP2 SUB SWAP1 RETURN JUMPDEST CALLVALUE DUP1 ISZERO PUSH2 0x13B JUMPI PUSH1 0x0 DUP1 REVERT JUMPDEST POP PUSH2 0x144 PUSH2 0x2F7 JUMP JUMPDEST PUSH1 0x40 MLOAD PUSH2 0x126 SWAP2 SWAP1 PUSH2 0x18E5 JUMP JUMPDEST PUSH2 0x164 PUSH2 0x15F CALLDATASIZE PUSH1 0x4 PUSH2 0x1A68 JUMP JUMPDEST PUSH2 0x78F JUMP JUMPDEST STOP JUMPDEST PUSH2 0x164 PUSH2 0x174 CALLDATASIZE PUSH1 0x4 PUSH2 0x1B11 JUMP JUMPDEST PUSH2 0xB74 JUMP JUMPDEST CALLVALUE DUP1 ISZERO PUSH2 0x185 JUMPI PUSH1 0x0 DUP1 REVERT JUMPDEST POP PUSH2 0x18E PUSH2 0xEBB JUMP JUMPDEST PUSH1 0x40 MLOAD SWAP1 ISZERO ISZERO DUP2 MSTORE PUSH1 0x20 ADD PUSH2 0x126 JUMP JUMPDEST CALLVALUE DUP1 ISZERO PUSH2 0x1AA JUMPI PUSH1 0x0 DUP1 REVERT JUMPDEST POP PUSH2 0x1BE PUSH2 0x1B9 CALLDATASIZE PUSH1 0x4 PUSH2 0x1B4D JUMP JUMPDEST PUSH2 0xEE8 JUMP JUMPDEST PUSH1 0x40 MLOAD PUSH2 0x126 SWAP2 SWAP1 PUSH2 0x1B9E JUMP JUMPDEST CALLVALUE DUP1 ISZERO PUSH2 0x1D7 JUMPI PUSH1 0x0 DUP1 REVERT JUMPDEST POP PUSH2 0x1E0 PUSH2 0x1101 JUMP JUMPDEST PUSH1 0x40 MLOAD SWAP1 DUP2 MSTORE PUSH1 0x20 ADD PUSH2 0x126 JUMP JUMPDEST CALLVALUE DUP1 ISZERO PUSH2 0x1FA JUMPI PUSH1 0x0 DUP1 REVERT JUMPDEST POP PUSH1 0x0 SLOAD PUSH1 0x1 PUSH1 0x1 PUSH1 0xA0 SHL SUB AND PUSH2 0x112 JUMP JUMPDEST CALLVALUE DUP1 ISZERO PUSH2 0x218 JUMPI PUSH1 0x0 DUP1 REVERT JUMPDEST POP PUSH1 0x0 SLOAD PUSH1 0x1 PUSH1 0x1 PUSH1 0xA0 SHL SUB AND CALLER EQ PUSH2 0x18E JUMP JUMPDEST CALLVALUE DUP1 ISZERO PUSH2 0x238 JUMPI PUSH1 0x0 DUP1 REVERT JUMPDEST POP PUSH2 0x1E0 PUSH2 0x115D JUMP JUMPDEST CALLVALUE DUP1 ISZERO PUSH2 0x24D JUMPI PUSH1 0x0 DUP1 REVERT JUMPDEST POP PUSH2 0x1E0 PUSH2 0x11B9 JUMP JUMPDEST CALLVALUE DUP1 ISZERO PUSH2 0x262 JUMPI PUSH1 0x0 DUP1 REVERT JUMPDEST POP PUSH2 0x1E0 PUSH2 0x12F5 JUMP JUMPDEST PUSH2 0x164 PUSH2 0x279 CALLDATASIZE PUSH1 0x4 PUSH2 0x1BB1 JUMP JUMPDEST PUSH2 0x135C JUMP JUMPDEST CALLVALUE DUP1 ISZERO PUSH2 0x28A JUMPI PUSH1 0x0 DUP1 REVERT JUMPDEST POP PUSH2 0x293 PUSH2 0x157A JUMP JUMPDEST PUSH1 0x40 MLOAD PUSH2 0x126 SWAP2 SWAP1 PUSH2 0x1BEA JUMP JUMPDEST CALLVALUE DUP1 ISZERO PUSH2 0x2AC JUMPI PUSH1 0x0 DUP1 REVERT JUMPDEST POP PUSH2 0x1E0 PUSH2 0x2BB CALLDATASIZE PUSH1 0x4 PUSH2 0x1C1B JUMP JUMPDEST PUSH2 0x161C JUMP JUMPDEST CALLVALUE DUP1 ISZERO PUSH2 0x2CC JUMPI PUSH1 0x0 DUP1 REVERT JUMPDEST POP PUSH2 0x2D5 PUSH2 0x1685 JUMP JUMPDEST PUSH1 0x40 MLOAD PUSH2 0x126 SWAP2 SWAP1 PUSH2 0x1C36 JUMP JUMPDEST CALLVALUE DUP1 ISZERO PUSH2 0x2EE JUMPI PUSH1 0x0 DUP1 REVERT JUMPDEST POP PUSH2 0x1E0 PUSH2 0x16E7 JUMP JUMPDEST PUSH1 0x60 PUSH1 0x0 DUP1 CALLER SWAP1 POP PUSH1 0x0 PUSH2 0x33C DUP3 PUSH1 0x40 MLOAD PUSH1 0x20 ADD PUSH2 0x328 SWAP2 SWAP1 PUSH1 0x60 SWAP2 SWAP1 SWAP2 SHL PUSH1 0x1 PUSH1 0x1 PUSH1 0x60 SHL SUB NOT AND DUP2 MSTORE PUSH1 0x14 ADD SWAP1 JUMP JUMPDEST PUSH1 0x40 MLOAD PUSH1 0x20 DUP2 DUP4 SUB SUB DUP2 MSTORE SWAP1 PUSH1 0x40 MSTORE PUSH2 0xEE8 JUMP JUMPDEST SWAP1 POP PUSH1 0x60 DUP1 PUSH1 0x0 JUMPDEST PUSH1 0x2 SLOAD DUP2 LT ISZERO PUSH2 0x43C JUMPI PUSH2 0x3A2 PUSH1 0x2 DUP3 DUP2 SLOAD DUP2 LT PUSH2 0x364 JUMPI PUSH2 0x364 PUSH2 0x1C83 JUMP JUMPDEST PUSH1 0x0 SWAP2 DUP3 MSTORE PUSH1 0x20 SWAP2 DUP3 SWAP1 KECCAK256 PUSH1 0x6 SWAP1 SWAP2 MUL ADD SLOAD PUSH1 0x40 MLOAD PUSH2 0x328 SWAP3 PUSH1 0x1 PUSH1 0x1 PUSH1 0xA0 SHL SUB SWAP1 SWAP3 AND SWAP2 ADD PUSH1 0x60 SWAP2 SWAP1 SWAP2 SHL PUSH1 0x1 PUSH1 0x1 PUSH1 0x60 SHL SUB NOT AND DUP2 MSTORE PUSH1 0x14 ADD SWAP1 JUMP JUMPDEST SWAP3 POP PUSH2 0x3FB PUSH1 0x2 DUP3 DUP2 SLOAD DUP2 LT PUSH2 0x3BA JUMPI PUSH2 0x3BA PUSH2 0x1C83 JUMP JUMPDEST PUSH1 0x0 SWAP2 DUP3 MSTORE PUSH1 0x20 SWAP2 DUP3 SWAP1 KECCAK256 PUSH1 0x1 PUSH1 0x6 SWAP1 SWAP3 MUL ADD ADD SLOAD PUSH1 0x40 MLOAD PUSH2 0x328 SWAP3 PUSH1 0x1 PUSH1 0x1 PUSH1 0xA0 SHL SUB SWAP1 SWAP3 AND SWAP2 ADD PUSH1 0x60 SWAP2 SWAP1 SWAP2 SHL PUSH1 0x1 PUSH1 0x1 PUSH1 0x60 SHL SUB NOT AND DUP2 MSTORE PUSH1 0x14 ADD SWAP1 JUMP JUMPDEST SWAP2 POP PUSH2 0x407 DUP5 DUP5 PUSH2 0x1743 JUMP JUMPDEST DUP1 PUSH2 0x417 JUMPI POP PUSH2 0x417 DUP5 DUP4 PUSH2 0x1743 JUMP JUMPDEST ISZERO PUSH2 0x42A JUMPI DUP6 PUSH2 0x426 DUP2 PUSH2 0x1CAF JUMP JUMPDEST SWAP7 POP POP JUMPDEST DUP1 PUSH2 0x434 DUP2 PUSH2 0x1CAF JUMP JUMPDEST SWAP2 POP POP PUSH2 0x344 JUMP JUMPDEST POP PUSH1 0x0 DUP6 PUSH8 0xFFFFFFFFFFFFFFFF DUP2 GT ISZERO PUSH2 0x458 JUMPI PUSH2 0x458 PUSH2 0x19B5 JUMP JUMPDEST PUSH1 0x40 MLOAD SWAP1 DUP1 DUP3 MSTORE DUP1 PUSH1 0x20 MUL PUSH1 0x20 ADD DUP3 ADD PUSH1 0x40 MSTORE DUP1 ISZERO PUSH2 0x4D4 JUMPI DUP2 PUSH1 0x20 ADD JUMPDEST PUSH2 0x4C1 PUSH1 0x40 MLOAD DUP1 PUSH1 0xC0 ADD PUSH1 0x40 MSTORE DUP1 PUSH1 0x0 PUSH1 0x1 PUSH1 0x1 PUSH1 0xA0 SHL SUB AND DUP2 MSTORE PUSH1 0x20 ADD PUSH1 0x0 PUSH1 0x1 PUSH1 0x1 PUSH1 0xA0 SHL SUB AND DUP2 MSTORE PUSH1 0x20 ADD PUSH1 0x60 DUP2 MSTORE PUSH1 0x20 ADD PUSH1 0x60 DUP2 MSTORE PUSH1 0x20 ADD PUSH1 0x0 DUP2 MSTORE PUSH1 0x20 ADD PUSH1 0x60 DUP2 MSTORE POP SWAP1 JUMP JUMPDEST DUP2 MSTORE PUSH1 0x20 ADD SWAP1 PUSH1 0x1 SWAP1 SUB SWAP1 DUP2 PUSH2 0x476 JUMPI SWAP1 POP JUMPDEST POP SWAP1 POP PUSH1 0x0 DUP1 JUMPDEST PUSH1 0x2 SLOAD DUP2 LT ISZERO PUSH2 0x782 JUMPI PUSH2 0x4FB PUSH1 0x2 DUP3 DUP2 SLOAD DUP2 LT PUSH2 0x364 JUMPI PUSH2 0x364 PUSH2 0x1C83 JUMP JUMPDEST SWAP5 POP PUSH2 0x513 PUSH1 0x2 DUP3 DUP2 SLOAD DUP2 LT PUSH2 0x3BA JUMPI PUSH2 0x3BA PUSH2 0x1C83 JUMP JUMPDEST SWAP4 POP PUSH2 0x51F DUP7 DUP7 PUSH2 0x1743 JUMP JUMPDEST DUP1 PUSH2 0x52F JUMPI POP PUSH2 0x52F DUP7 DUP6 PUSH2 0x1743 JUMP JUMPDEST ISZERO PUSH2 0x770 JUMPI PUSH1 0x2 DUP2 DUP2 SLOAD DUP2 LT PUSH2 0x547 JUMPI PUSH2 0x547 PUSH2 0x1C83 JUMP JUMPDEST PUSH1 0x0 SWAP2 DUP3 MSTORE PUSH1 0x20 SWAP2 DUP3 SWAP1 KECCAK256 PUSH1 0x40 DUP1 MLOAD PUSH1 0xC0 DUP2 ADD DUP3 MSTORE PUSH1 0x6 SWAP1 SWAP4 MUL SWAP1 SWAP2 ADD DUP1 SLOAD PUSH1 0x1 PUSH1 0x1 PUSH1 0xA0 SHL SUB SWAP1 DUP2 AND DUP5 MSTORE PUSH1 0x1 DUP3 ADD SLOAD AND SWAP4 DUP4 ADD SWAP4 SWAP1 SWAP4 MSTORE PUSH1 0x2 DUP4 ADD DUP1 SLOAD SWAP3 SWAP4 SWAP3 SWAP2 DUP5 ADD SWAP2 PUSH2 0x596 SWAP1 PUSH2 0x1CCA JUMP JUMPDEST DUP1 PUSH1 0x1F ADD PUSH1 0x20 DUP1 SWAP2 DIV MUL PUSH1 0x20 ADD PUSH1 0x40 MLOAD SWAP1 DUP2 ADD PUSH1 0x40 MSTORE DUP1 SWAP3 SWAP2 SWAP1 DUP2 DUP2 MSTORE PUSH1 0x20 ADD DUP3 DUP1 SLOAD PUSH2 0x5C2 SWAP1 PUSH2 0x1CCA JUMP JUMPDEST DUP1 ISZERO PUSH2 0x60F JUMPI DUP1 PUSH1 0x1F LT PUSH2 0x5E4 JUMPI PUSH2 0x100 DUP1 DUP4 SLOAD DIV MUL DUP4 MSTORE SWAP2 PUSH1 0x20 ADD SWAP2 PUSH2 0x60F JUMP JUMPDEST DUP3 ADD SWAP2 SWAP1 PUSH1 0x0 MSTORE PUSH1 0x20 PUSH1 0x0 KECCAK256 SWAP1 JUMPDEST DUP2 SLOAD DUP2 MSTORE SWAP1 PUSH1 0x1 ADD SWAP1 PUSH1 0x20 ADD DUP1 DUP4 GT PUSH2 0x5F2 JUMPI DUP3 SWAP1 SUB PUSH1 0x1F AND DUP3 ADD SWAP2 JUMPDEST POP POP POP POP POP DUP2 MSTORE PUSH1 0x20 ADD PUSH1 0x3 DUP3 ADD DUP1 SLOAD PUSH2 0x628 SWAP1 PUSH2 0x1CCA JUMP JUMPDEST DUP1 PUSH1 0x1F ADD PUSH1 0x20 DUP1 SWAP2 DIV MUL PUSH1 0x20 ADD PUSH1 0x40 MLOAD SWAP1 DUP2 ADD PUSH1 0x40 MSTORE DUP1 SWAP3 SWAP2 SWAP1 DUP2 DUP2 MSTORE PUSH1 0x20 ADD DUP3 DUP1 SLOAD PUSH2 0x654 SWAP1 PUSH2 0x1CCA JUMP JUMPDEST DUP1 ISZERO PUSH2 0x6A1 JUMPI DUP1 PUSH1 0x1F LT PUSH2 0x676 JUMPI PUSH2 0x100 DUP1 DUP4 SLOAD DIV MUL DUP4 MSTORE SWAP2 PUSH1 0x20 ADD SWAP2 PUSH2 0x6A1 JUMP JUMPDEST DUP3 ADD SWAP2 SWAP1 PUSH1 0x0 MSTORE PUSH1 0x20 PUSH1 0x0 KECCAK256 SWAP1 JUMPDEST DUP2 SLOAD DUP2 MSTORE SWAP1 PUSH1 0x1 ADD SWAP1 PUSH1 0x20 ADD DUP1 DUP4 GT PUSH2 0x684 JUMPI DUP3 SWAP1 SUB PUSH1 0x1F AND DUP3 ADD SWAP2 JUMPDEST POP POP POP POP POP DUP2 MSTORE PUSH1 0x20 ADD PUSH1 0x4 DUP3 ADD SLOAD DUP2 MSTORE PUSH1 0x20 ADD PUSH1 0x5 DUP3 ADD DUP1 SLOAD PUSH2 0x6C4 SWAP1 PUSH2 0x1CCA JUMP JUMPDEST DUP1 PUSH1 0x1F ADD PUSH1 0x20 DUP1 SWAP2 DIV MUL PUSH1 0x20 ADD PUSH1 0x40 MLOAD SWAP1 DUP2 ADD PUSH1 0x40 MSTORE DUP1 SWAP3 SWAP2 SWAP1 DUP2 DUP2 MSTORE PUSH1 0x20 ADD DUP3 DUP1 SLOAD PUSH2 0x6F0 SWAP1 PUSH2 0x1CCA JUMP JUMPDEST DUP1 ISZERO PUSH2 0x73D JUMPI DUP1 PUSH1 0x1F LT PUSH2 0x712 JUMPI PUSH2 0x100 DUP1 DUP4 SLOAD DIV MUL DUP4 MSTORE SWAP2 PUSH1 0x20 ADD SWAP2 PUSH2 0x73D JUMP JUMPDEST DUP3 ADD SWAP2 SWAP1 PUSH1 0x0 MSTORE PUSH1 0x20 PUSH1 0x0 KECCAK256 SWAP1 JUMPDEST DUP2 SLOAD DUP2 MSTORE SWAP1 PUSH1 0x1 ADD SWAP1 PUSH1 0x20 ADD DUP1 DUP4 GT PUSH2 0x720 JUMPI DUP3 SWAP1 SUB PUSH1 0x1F AND DUP3 ADD SWAP2 JUMPDEST POP POP POP POP POP DUP2 MSTORE POP POP DUP4 DUP4 DUP1 PUSH2 0x752 SWAP1 PUSH2 0x1CAF JUMP JUMPDEST SWAP5 POP DUP2 MLOAD DUP2 LT PUSH2 0x764 JUMPI PUSH2 0x764 PUSH2 0x1C83 JUMP JUMPDEST PUSH1 0x20 MUL PUSH1 0x20 ADD ADD DUP2 SWAP1 MSTORE POP JUMPDEST DUP1 PUSH2 0x77A DUP2 PUSH2 0x1CAF JUMP JUMPDEST SWAP2 POP POP PUSH2 0x4DB JUMP JUMPDEST POP SWAP1 SWAP8 SWAP7 POP POP POP POP POP POP POP JUMP JUMPDEST PUSH1 0x0 PUSH2 0x79A CALLER PUSH2 0x161C JUMP JUMPDEST PUSH1 0x1 SLOAD SWAP1 SWAP2 POP DUP2 GT ISZERO PUSH2 0x7C8 JUMPI PUSH1 0x40 MLOAD PUSH3 0x461BCD PUSH1 0xE5 SHL DUP2 MSTORE PUSH1 0x4 ADD PUSH2 0x7BF SWAP1 PUSH2 0x1D05 JUMP JUMPDEST PUSH1 0x40 MLOAD DUP1 SWAP2 SUB SWAP1 REVERT JUMPDEST PUSH2 0x7F0 DUP6 PUSH1 0x40 MLOAD DUP1 PUSH1 0x40 ADD PUSH1 0x40 MSTORE DUP1 PUSH1 0x6 DUP2 MSTORE PUSH1 0x20 ADD PUSH6 0x30B6B0BD37B7 PUSH1 0xD1 SHL DUP2 MSTORE POP PUSH2 0x1743 JUMP JUMPDEST ISZERO PUSH2 0x834 JUMPI DUP3 PUSH1 0x1 DUP3 DUP2 SLOAD DUP2 LT PUSH2 0x809 JUMPI PUSH2 0x809 PUSH2 0x1C83 JUMP JUMPDEST SWAP1 PUSH1 0x0 MSTORE PUSH1 0x20 PUSH1 0x0 KECCAK256 SWAP1 PUSH1 0x4 MUL ADD PUSH1 0x1 ADD PUSH1 0x0 DUP3 DUP3 SLOAD PUSH2 0x829 SWAP2 SWAP1 PUSH2 0x1D2F JUMP JUMPDEST SWAP1 SWAP2 SSTORE POP PUSH2 0x8FE SWAP1 POP JUMP JUMPDEST PUSH2 0x85E DUP6 PUSH1 0x40 MLOAD DUP1 PUSH1 0x40 ADD PUSH1 0x40 MSTORE DUP1 PUSH1 0x8 DUP2 MSTORE PUSH1 0x20 ADD PUSH8 0x199B1A5C1AD85C9D PUSH1 0xC2 SHL DUP2 MSTORE POP PUSH2 0x1743 JUMP JUMPDEST ISZERO PUSH2 0x897 JUMPI DUP3 PUSH1 0x1 DUP3 DUP2 SLOAD DUP2 LT PUSH2 0x877 JUMPI PUSH2 0x877 PUSH2 0x1C83 JUMP JUMPDEST SWAP1 PUSH1 0x0 MSTORE PUSH1 0x20 PUSH1 0x0 KECCAK256 SWAP1 PUSH1 0x4 MUL ADD PUSH1 0x2 ADD PUSH1 0x0 DUP3 DUP3 SLOAD PUSH2 0x829 SWAP2 SWAP1 PUSH2 0x1D2F JUMP JUMPDEST PUSH2 0x8BF DUP6 PUSH1 0x40 MLOAD DUP1 PUSH1 0x40 ADD PUSH1 0x40 MSTORE DUP1 PUSH1 0x6 DUP2 MSTORE PUSH1 0x20 ADD PUSH6 0x6D796E747261 PUSH1 0xD0 SHL DUP2 MSTORE POP PUSH2 0x1743 JUMP JUMPDEST ISZERO PUSH2 0x8FE JUMPI DUP3 PUSH1 0x1 DUP3 DUP2 SLOAD DUP2 LT PUSH2 0x8D8 JUMPI PUSH2 0x8D8 PUSH2 0x1C83 JUMP JUMPDEST SWAP1 PUSH1 0x0 MSTORE PUSH1 0x20 PUSH1 0x0 KECCAK256 SWAP1 PUSH1 0x4 MUL ADD PUSH1 0x3 ADD PUSH1 0x0 DUP3 DUP3 SLOAD PUSH2 0x8F8 SWAP2 SWAP1 PUSH2 0x1D2F JUMP JUMPDEST SWAP1 SWAP2 SSTORE POP POP JUMPDEST PUSH2 0x926 DUP5 PUSH1 0x40 MLOAD DUP1 PUSH1 0x40 ADD PUSH1 0x40 MSTORE DUP1 PUSH1 0x6 DUP2 MSTORE PUSH1 0x20 ADD PUSH6 0x30B6B0BD37B7 PUSH1 0xD1 SHL DUP2 MSTORE POP PUSH2 0x1743 JUMP JUMPDEST ISZERO PUSH2 0x96A JUMPI DUP3 PUSH1 0x1 DUP3 DUP2 SLOAD DUP2 LT PUSH2 0x93F JUMPI PUSH2 0x93F PUSH2 0x1C83 JUMP JUMPDEST SWAP1 PUSH1 0x0 MSTORE PUSH1 0x20 PUSH1 0x0 KECCAK256 SWAP1 PUSH1 0x4 MUL ADD PUSH1 0x1 ADD PUSH1 0x0 DUP3 DUP3 SLOAD PUSH2 0x95F SWAP2 SWAP1 PUSH2 0x1D46 JUMP JUMPDEST SWAP1 SWAP2 SSTORE POP PUSH2 0xA34 SWAP1 POP JUMP JUMPDEST PUSH2 0x994 DUP5 PUSH1 0x40 MLOAD DUP1 PUSH1 0x40 ADD PUSH1 0x40 MSTORE DUP1 PUSH1 0x8 DUP2 MSTORE PUSH1 0x20 ADD PUSH8 0x199B1A5C1AD85C9D PUSH1 0xC2 SHL DUP2 MSTORE POP PUSH2 0x1743 JUMP JUMPDEST ISZERO PUSH2 0x9CD JUMPI DUP3 PUSH1 0x1 DUP3 DUP2 SLOAD DUP2 LT PUSH2 0x9AD JUMPI PUSH2 0x9AD PUSH2 0x1C83 JUMP JUMPDEST SWAP1 PUSH1 0x0 MSTORE PUSH1 0x20 PUSH1 0x0 KECCAK256 SWAP1 PUSH1 0x4 MUL ADD PUSH1 0x2 ADD PUSH1 0x0 DUP3 DUP3 SLOAD PUSH2 0x95F SWAP2 SWAP1 PUSH2 0x1D46 JUMP JUMPDEST PUSH2 0x9F5 DUP5 PUSH1 0x40 MLOAD DUP1 PUSH1 0x40 ADD PUSH1 0x40 MSTORE DUP1 PUSH1 0x6 DUP2 MSTORE PUSH1 0x20 ADD PUSH6 0x6D796E747261 PUSH1 0xD0 SHL DUP2 MSTORE POP PUSH2 0x1743 JUMP JUMPDEST ISZERO PUSH2 0xA34 JUMPI DUP3 PUSH1 0x1 DUP3 DUP2 SLOAD DUP2 LT PUSH2 0xA0E JUMPI PUSH2 0xA0E PUSH2 0x1C83 JUMP JUMPDEST SWAP1 PUSH1 0x0 MSTORE PUSH1 0x20 PUSH1 0x0 KECCAK256 SWAP1 PUSH1 0x4 MUL ADD PUSH1 0x3 ADD PUSH1 0x0 DUP3 DUP3 SLOAD PUSH2 0xA2E SWAP2 SWAP1 PUSH2 0x1D46 JUMP JUMPDEST SWAP1 SWAP2 SSTORE POP POP JUMPDEST PUSH1 0x40 DUP1 MLOAD PUSH1 0xC0 DUP2 ADD DUP3 MSTORE CALLER DUP1 DUP3 MSTORE PUSH1 0x20 DUP1 DUP4 ADD SWAP2 DUP3 MSTORE SWAP3 DUP3 ADD DUP9 DUP2 MSTORE PUSH1 0x60 DUP4 ADD DUP9 SWAP1 MSTORE PUSH1 0x80 DUP4 ADD DUP8 SWAP1 MSTORE PUSH1 0xA0 DUP4 ADD DUP7 SWAP1 MSTORE PUSH1 0x2 DUP1 SLOAD PUSH1 0x1 DUP2 ADD DUP3 SSTORE PUSH1 0x0 SWAP2 SWAP1 SWAP2 MSTORE DUP4 MLOAD PUSH1 0x6 SWAP1 SWAP2 MUL PUSH32 0x405787FA12A823E0F2B7631CC41B3BA8828B3321CA811111FA75CD3AA3BB5ACE DUP2 ADD DUP1 SLOAD PUSH1 0x1 PUSH1 0x1 PUSH1 0xA0 SHL SUB SWAP4 DUP5 AND PUSH1 0x1 PUSH1 0x1 PUSH1 0xA0 SHL SUB NOT SWAP2 DUP3 AND OR DUP3 SSTORE SWAP5 MLOAD PUSH32 0x405787FA12A823E0F2B7631CC41B3BA8828B3321CA811111FA75CD3AA3BB5ACF DUP4 ADD DUP1 SLOAD SWAP2 SWAP1 SWAP5 AND SWAP6 AND SWAP5 SWAP1 SWAP5 OR SWAP1 SWAP2 SSTORE SWAP1 MLOAD DUP1 MLOAD SWAP4 SWAP5 DUP6 SWAP5 PUSH2 0xB27 SWAP4 PUSH32 0x405787FA12A823E0F2B7631CC41B3BA8828B3321CA811111FA75CD3AA3BB5AD0 ADD SWAP3 SWAP1 SWAP2 ADD SWAP1 PUSH2 0x17E5 JUMP JUMPDEST POP PUSH1 0x60 DUP3 ADD MLOAD DUP1 MLOAD PUSH2 0xB43 SWAP2 PUSH1 0x3 DUP5 ADD SWAP2 PUSH1 0x20 SWAP1 SWAP2 ADD SWAP1 PUSH2 0x17E5 JUMP JUMPDEST POP PUSH1 0x80 DUP3 ADD MLOAD PUSH1 0x4 DUP3 ADD SSTORE PUSH1 0xA0 DUP3 ADD MLOAD DUP1 MLOAD PUSH2 0xB69 SWAP2 PUSH1 0x5 DUP5 ADD SWAP2 PUSH1 0x20 SWAP1 SWAP2 ADD SWAP1 PUSH2 0x17E5 JUMP JUMPDEST POP POP POP POP POP POP POP POP POP JUMP JUMPDEST PUSH1 0x0 PUSH2 0xB7F CALLER PUSH2 0x161C JUMP JUMPDEST SWAP1 POP PUSH1 0x0 PUSH2 0xB8C DUP7 PUSH2 0x161C JUMP JUMPDEST SWAP1 POP PUSH2 0xBB6 DUP6 PUSH1 0x40 MLOAD DUP1 PUSH1 0x40 ADD PUSH1 0x40 MSTORE DUP1 PUSH1 0x6 DUP2 MSTORE PUSH1 0x20 ADD PUSH6 0x30B6B0BD37B7 PUSH1 0xD1 SHL DUP2 MSTORE POP PUSH2 0x1743 JUMP JUMPDEST ISZERO PUSH2 0xC35 JUMPI DUP4 PUSH1 0x1 DUP4 DUP2 SLOAD DUP2 LT PUSH2 0xBCF JUMPI PUSH2 0xBCF PUSH2 0x1C83 JUMP JUMPDEST SWAP1 PUSH1 0x0 MSTORE PUSH1 0x20 PUSH1 0x0 KECCAK256 SWAP1 PUSH1 0x4 MUL ADD PUSH1 0x1 ADD PUSH1 0x0 DUP3 DUP3 SLOAD PUSH2 0xBEF SWAP2 SWAP1 PUSH2 0x1D2F JUMP JUMPDEST SWAP3 POP POP DUP2 SWAP1 SSTORE POP DUP4 PUSH1 0x1 DUP3 DUP2 SLOAD DUP2 LT PUSH2 0xC0A JUMPI PUSH2 0xC0A PUSH2 0x1C83 JUMP JUMPDEST SWAP1 PUSH1 0x0 MSTORE PUSH1 0x20 PUSH1 0x0 KECCAK256 SWAP1 PUSH1 0x4 MUL ADD PUSH1 0x1 ADD PUSH1 0x0 DUP3 DUP3 SLOAD PUSH2 0xC2A SWAP2 SWAP1 PUSH2 0x1D46 JUMP JUMPDEST SWAP1 SWAP2 SSTORE POP PUSH2 0xD75 SWAP1 POP JUMP JUMPDEST PUSH2 0xC5F DUP6 PUSH1 0x40 MLOAD DUP1 PUSH1 0x40 ADD PUSH1 0x40 MSTORE DUP1 PUSH1 0x8 DUP2 MSTORE PUSH1 0x20 ADD PUSH8 0x199B1A5C1AD85C9D PUSH1 0xC2 SHL DUP2 MSTORE POP PUSH2 0x1743 JUMP JUMPDEST ISZERO PUSH2 0xCD3 JUMPI DUP4 PUSH1 0x1 DUP4 DUP2 SLOAD DUP2 LT PUSH2 0xC78 JUMPI PUSH2 0xC78 PUSH2 0x1C83 JUMP JUMPDEST SWAP1 PUSH1 0x0 MSTORE PUSH1 0x20 PUSH1 0x0 KECCAK256 SWAP1 PUSH1 0x4 MUL ADD PUSH1 0x2 ADD PUSH1 0x0 DUP3 DUP3 SLOAD PUSH2 0xC98 SWAP2 SWAP1 PUSH2 0x1D2F JUMP JUMPDEST SWAP3 POP POP DUP2 SWAP1 SSTORE POP DUP4 PUSH1 0x1 DUP3 DUP2 SLOAD DUP2 LT PUSH2 0xCB3 JUMPI PUSH2 0xCB3 PUSH2 0x1C83 JUMP JUMPDEST SWAP1 PUSH1 0x0 MSTORE PUSH1 0x20 PUSH1 0x0 KECCAK256 SWAP1 PUSH1 0x4 MUL ADD PUSH1 0x2 ADD PUSH1 0x0 DUP3 DUP3 SLOAD PUSH2 0xC2A SWAP2 SWAP1 PUSH2 0x1D46 JUMP JUMPDEST PUSH2 0xCFB DUP6 PUSH1 0x40 MLOAD DUP1 PUSH1 0x40 ADD PUSH1 0x40 MSTORE DUP1 PUSH1 0x6 DUP2 MSTORE PUSH1 0x20 ADD PUSH6 0x6D796E747261 PUSH1 0xD0 SHL DUP2 MSTORE POP PUSH2 0x1743 JUMP JUMPDEST ISZERO PUSH2 0xD75 JUMPI DUP4 PUSH1 0x1 DUP4 DUP2 SLOAD DUP2 LT PUSH2 0xD14 JUMPI PUSH2 0xD14 PUSH2 0x1C83 JUMP JUMPDEST SWAP1 PUSH1 0x0 MSTORE PUSH1 0x20 PUSH1 0x0 KECCAK256 SWAP1 PUSH1 0x4 MUL ADD PUSH1 0x3 ADD PUSH1 0x0 DUP3 DUP3 SLOAD PUSH2 0xD34 SWAP2 SWAP1 PUSH2 0x1D2F JUMP JUMPDEST SWAP3 POP POP DUP2 SWAP1 SSTORE POP DUP4 PUSH1 0x1 DUP3 DUP2 SLOAD DUP2 LT PUSH2 0xD4F JUMPI PUSH2 0xD4F PUSH2 0x1C83 JUMP JUMPDEST SWAP1 PUSH1 0x0 MSTORE PUSH1 0x20 PUSH1 0x0 KECCAK256 SWAP1 PUSH1 0x4 MUL ADD PUSH1 0x3 ADD PUSH1 0x0 DUP3 DUP3 SLOAD PUSH2 0xD6F SWAP2 SWAP1 PUSH2 0x1D46 JUMP JUMPDEST SWAP1 SWAP2 SSTORE POP POP JUMPDEST PUSH1 0x40 DUP1 MLOAD PUSH1 0xC0 DUP2 ADD DUP3 MSTORE CALLER DUP2 MSTORE PUSH1 0x1 PUSH1 0x1 PUSH1 0xA0 SHL SUB DUP9 DUP2 AND PUSH1 0x20 DUP1 DUP5 ADD SWAP2 DUP3 MSTORE SWAP4 DUP4 ADD DUP10 DUP2 MSTORE PUSH1 0x60 DUP5 ADD DUP11 SWAP1 MSTORE PUSH1 0x80 DUP5 ADD DUP10 SWAP1 MSTORE PUSH1 0xA0 DUP5 ADD DUP9 SWAP1 MSTORE PUSH1 0x2 DUP1 SLOAD PUSH1 0x1 DUP2 ADD DUP3 SSTORE PUSH1 0x0 SWAP2 SWAP1 SWAP2 MSTORE DUP5 MLOAD PUSH1 0x6 SWAP1 SWAP2 MUL PUSH32 0x405787FA12A823E0F2B7631CC41B3BA8828B3321CA811111FA75CD3AA3BB5ACE DUP2 ADD DUP1 SLOAD SWAP3 DUP7 AND PUSH1 0x1 PUSH1 0x1 PUSH1 0xA0 SHL SUB NOT SWAP4 DUP5 AND OR DUP2 SSTORE SWAP4 MLOAD PUSH32 0x405787FA12A823E0F2B7631CC41B3BA8828B3321CA811111FA75CD3AA3BB5ACF DUP3 ADD DUP1 SLOAD SWAP2 SWAP1 SWAP7 AND SWAP3 AND SWAP2 SWAP1 SWAP2 OR SWAP1 SWAP4 SSTORE MLOAD DUP1 MLOAD SWAP4 SWAP5 DUP6 SWAP5 SWAP3 SWAP4 PUSH2 0xE6D SWAP4 PUSH32 0x405787FA12A823E0F2B7631CC41B3BA8828B3321CA811111FA75CD3AA3BB5AD0 SWAP1 SWAP2 ADD SWAP3 SWAP1 SWAP2 ADD SWAP1 PUSH2 0x17E5 JUMP JUMPDEST POP PUSH1 0x60 DUP3 ADD MLOAD DUP1 MLOAD PUSH2 0xE89 SWAP2 PUSH1 0x3 DUP5 ADD SWAP2 PUSH1 0x20 SWAP1 SWAP2 ADD SWAP1 PUSH2 0x17E5 JUMP JUMPDEST POP PUSH1 0x80 DUP3 ADD MLOAD PUSH1 0x4 DUP3 ADD SSTORE PUSH1 0xA0 DUP3 ADD MLOAD DUP1 MLOAD PUSH2 0xEAF SWAP2 PUSH1 0x5 DUP5 ADD SWAP2 PUSH1 0x20 SWAP1 SWAP2 ADD SWAP1 PUSH2 0x17E5 JUMP JUMPDEST POP POP POP POP POP POP POP POP POP POP JUMP JUMPDEST PUSH1 0x0 DUP1 PUSH2 0xEC7 CALLER PUSH2 0x161C JUMP JUMPDEST PUSH1 0x1 SLOAD SWAP1 SWAP2 POP DUP2 LT ISZERO PUSH2 0xEDC JUMPI PUSH1 0x1 SWAP2 POP POP SWAP1 JUMP JUMPDEST PUSH1 0x0 SWAP2 POP POP SWAP1 JUMP JUMPDEST POP SWAP1 JUMP JUMPDEST PUSH1 0x40 DUP1 MLOAD DUP1 DUP3 ADD SWAP1 SWAP2 MSTORE PUSH1 0x10 DUP2 MSTORE PUSH16 0x181899199A1A9B1B9C1CB0B131B232B3 PUSH1 0x81 SHL PUSH1 0x20 DUP3 ADD MSTORE DUP2 MLOAD PUSH1 0x60 SWAP2 SWAP1 PUSH1 0x0 SWAP1 PUSH2 0xF23 SWAP1 PUSH1 0x2 PUSH2 0x1D5E JUMP JUMPDEST PUSH2 0xF2E SWAP1 PUSH1 0x2 PUSH2 0x1D46 JUMP JUMPDEST PUSH8 0xFFFFFFFFFFFFFFFF DUP2 GT ISZERO PUSH2 0xF46 JUMPI PUSH2 0xF46 PUSH2 0x19B5 JUMP JUMPDEST PUSH1 0x40 MLOAD SWAP1 DUP1 DUP3 MSTORE DUP1 PUSH1 0x1F ADD PUSH1 0x1F NOT AND PUSH1 0x20 ADD DUP3 ADD PUSH1 0x40 MSTORE DUP1 ISZERO PUSH2 0xF70 JUMPI PUSH1 0x20 DUP3 ADD DUP2 DUP1 CALLDATASIZE DUP4 CALLDATACOPY ADD SWAP1 POP JUMPDEST POP SWAP1 POP PUSH1 0x3 PUSH1 0xFC SHL DUP2 PUSH1 0x0 DUP2 MLOAD DUP2 LT PUSH2 0xF8B JUMPI PUSH2 0xF8B PUSH2 0x1C83 JUMP JUMPDEST PUSH1 0x20 ADD ADD SWAP1 PUSH1 0x1 PUSH1 0x1 PUSH1 0xF8 SHL SUB NOT AND SWAP1 DUP2 PUSH1 0x0 BYTE SWAP1 MSTORE8 POP PUSH1 0xF PUSH1 0xFB SHL DUP2 PUSH1 0x1 DUP2 MLOAD DUP2 LT PUSH2 0xFBA JUMPI PUSH2 0xFBA PUSH2 0x1C83 JUMP JUMPDEST PUSH1 0x20 ADD ADD SWAP1 PUSH1 0x1 PUSH1 0x1 PUSH1 0xF8 SHL SUB NOT AND SWAP1 DUP2 PUSH1 0x0 BYTE SWAP1 MSTORE8 POP PUSH1 0x0 JUMPDEST DUP5 MLOAD DUP2 LT ISZERO PUSH2 0x10F9 JUMPI DUP3 PUSH1 0x4 DUP7 DUP4 DUP2 MLOAD DUP2 LT PUSH2 0xFF2 JUMPI PUSH2 0xFF2 PUSH2 0x1C83 JUMP JUMPDEST ADD PUSH1 0x20 ADD MLOAD DUP3 MLOAD PUSH1 0x1 PUSH1 0x1 PUSH1 0xF8 SHL SUB NOT SWAP1 SWAP2 AND SWAP1 SWAP2 SHR PUSH1 0xF8 SHR SWAP1 DUP2 LT PUSH2 0x101A JUMPI PUSH2 0x101A PUSH2 0x1C83 JUMP JUMPDEST ADD PUSH1 0x20 ADD MLOAD PUSH1 0x1 PUSH1 0x1 PUSH1 0xF8 SHL SUB NOT AND DUP3 PUSH2 0x1035 DUP4 PUSH1 0x2 PUSH2 0x1D5E JUMP JUMPDEST PUSH2 0x1040 SWAP1 PUSH1 0x2 PUSH2 0x1D46 JUMP JUMPDEST DUP2 MLOAD DUP2 LT PUSH2 0x1050 JUMPI PUSH2 0x1050 PUSH2 0x1C83 JUMP JUMPDEST PUSH1 0x20 ADD ADD SWAP1 PUSH1 0x1 PUSH1 0x1 PUSH1 0xF8 SHL SUB NOT AND SWAP1 DUP2 PUSH1 0x0 BYTE SWAP1 MSTORE8 POP DUP3 DUP6 DUP3 DUP2 MLOAD DUP2 LT PUSH2 0x107A JUMPI PUSH2 0x107A PUSH2 0x1C83 JUMP JUMPDEST PUSH1 0x20 SWAP2 ADD ADD MLOAD DUP2 MLOAD PUSH1 0xF8 SWAP2 SWAP1 SWAP2 SHR PUSH1 0xF AND SWAP1 DUP2 LT PUSH2 0x109A JUMPI PUSH2 0x109A PUSH2 0x1C83 JUMP JUMPDEST ADD PUSH1 0x20 ADD MLOAD PUSH1 0x1 PUSH1 0x1 PUSH1 0xF8 SHL SUB NOT AND DUP3 PUSH2 0x10B5 DUP4 PUSH1 0x2 PUSH2 0x1D5E JUMP JUMPDEST PUSH2 0x10C0 SWAP1 PUSH1 0x3 PUSH2 0x1D46 JUMP JUMPDEST DUP2 MLOAD DUP2 LT PUSH2 0x10D0 JUMPI PUSH2 0x10D0 PUSH2 0x1C83 JUMP JUMPDEST PUSH1 0x20 ADD ADD SWAP1 PUSH1 0x1 PUSH1 0x1 PUSH1 0xF8 SHL SUB NOT AND SWAP1 DUP2 PUSH1 0x0 BYTE SWAP1 MSTORE8 POP DUP1 PUSH2 0x10F1 DUP2 PUSH2 0x1CAF JUMP JUMPDEST SWAP2 POP POP PUSH2 0xFD4 JUMP JUMPDEST POP SWAP4 SWAP3 POP POP POP JUMP JUMPDEST PUSH1 0x0 DUP1 PUSH2 0x110D CALLER PUSH2 0x161C JUMP JUMPDEST PUSH1 0x1 SLOAD SWAP1 SWAP2 POP DUP2 GT ISZERO PUSH2 0x1132 JUMPI PUSH1 0x40 MLOAD PUSH3 0x461BCD PUSH1 0xE5 SHL DUP2 MSTORE PUSH1 0x4 ADD PUSH2 0x7BF SWAP1 PUSH2 0x1D05 JUMP JUMPDEST PUSH1 0x1 DUP2 DUP2 SLOAD DUP2 LT PUSH2 0x1145 JUMPI PUSH2 0x1145 PUSH2 0x1C83 JUMP JUMPDEST SWAP1 PUSH1 0x0 MSTORE PUSH1 0x20 PUSH1 0x0 KECCAK256 SWAP1 PUSH1 0x4 MUL ADD PUSH1 0x2 ADD SLOAD SWAP2 POP POP SWAP1 JUMP JUMPDEST PUSH1 0x0 DUP1 PUSH2 0x1169 CALLER PUSH2 0x161C JUMP JUMPDEST PUSH1 0x1 SLOAD SWAP1 SWAP2 POP DUP2 GT ISZERO PUSH2 0x118E JUMPI PUSH1 0x40 MLOAD PUSH3 0x461BCD PUSH1 0xE5 SHL DUP2 MSTORE PUSH1 0x4 ADD PUSH2 0x7BF SWAP1 PUSH2 0x1D05 JUMP JUMPDEST PUSH1 0x1 DUP2 DUP2 SLOAD DUP2 LT PUSH2 0x11A1 JUMPI PUSH2 0x11A1 PUSH2 0x1C83 JUMP JUMPDEST SWAP1 PUSH1 0x0 MSTORE PUSH1 0x20 PUSH1 0x0 KECCAK256 SWAP1 PUSH1 0x4 MUL ADD PUSH1 0x3 ADD SLOAD SWAP2 POP POP SWAP1 JUMP JUMPDEST PUSH1 0x0 CALLER DUP2 DUP1 JUMPDEST PUSH1 0x1 SLOAD DUP2 LT ISZERO PUSH2 0x121D JUMPI DUP3 PUSH1 0x1 PUSH1 0x1 PUSH1 0xA0 SHL SUB AND PUSH1 0x1 DUP3 DUP2 SLOAD DUP2 LT PUSH2 0x11E6 JUMPI PUSH2 0x11E6 PUSH2 0x1C83 JUMP JUMPDEST PUSH1 0x0 SWAP2 DUP3 MSTORE PUSH1 0x20 SWAP1 SWAP2 KECCAK256 PUSH1 0x4 SWAP1 SWAP2 MUL ADD SLOAD PUSH1 0x1 PUSH1 0x1 PUSH1 0xA0 SHL SUB AND EQ ISZERO PUSH2 0x120B JUMPI PUSH2 0x121D JUMP JUMPDEST DUP1 PUSH2 0x1215 DUP2 PUSH2 0x1CAF JUMP JUMPDEST SWAP2 POP POP PUSH2 0x11BF JUMP JUMPDEST PUSH1 0x1 SLOAD DUP2 LT ISZERO PUSH2 0x1231 JUMPI PUSH1 0x1 SWAP4 POP POP POP POP SWAP1 JUMP JUMPDEST PUSH1 0x3 SLOAD DUP3 LT ISZERO PUSH2 0x128A JUMPI DUP3 PUSH1 0x1 PUSH1 0x1 PUSH1 0xA0 SHL SUB AND PUSH1 0x3 DUP4 DUP2 SLOAD DUP2 LT PUSH2 0x1258 JUMPI PUSH2 0x1258 PUSH2 0x1C83 JUMP JUMPDEST PUSH1 0x0 SWAP2 DUP3 MSTORE PUSH1 0x20 SWAP1 SWAP2 KECCAK256 ADD SLOAD PUSH1 0x1 PUSH1 0x1 PUSH1 0xA0 SHL SUB AND EQ ISZERO PUSH2 0x1278 JUMPI PUSH2 0x128A JUMP JUMPDEST DUP2 PUSH2 0x1282 DUP2 PUSH2 0x1CAF JUMP JUMPDEST SWAP3 POP POP PUSH2 0x1231 JUMP JUMPDEST PUSH1 0x3 SLOAD DUP3 LT ISZERO PUSH2 0x129E JUMPI PUSH1 0x2 SWAP4 POP POP POP POP SWAP1 JUMP JUMPDEST POP POP PUSH1 0x3 DUP1 SLOAD PUSH1 0x1 DUP2 ADD DUP3 SSTORE PUSH1 0x0 DUP3 SWAP1 MSTORE PUSH32 0xC2575A0E9E593C00F959F8C92F12DB2869C3395A3B0502D05E2516446F71F85B ADD DUP1 SLOAD PUSH1 0x1 PUSH1 0x1 PUSH1 0xA0 SHL SUB NOT AND PUSH1 0x1 PUSH1 0x1 PUSH1 0xA0 SHL SUB SWAP4 SWAP1 SWAP4 AND SWAP3 SWAP1 SWAP3 OR SWAP1 SWAP2 SSTORE SWAP2 SWAP1 POP JUMP JUMPDEST PUSH1 0x0 DUP1 JUMPDEST PUSH1 0x1 SLOAD DUP2 LT ISZERO PUSH2 0x1357 JUMPI CALLER PUSH1 0x1 PUSH1 0x1 PUSH1 0xA0 SHL SUB AND PUSH1 0x1 DUP3 DUP2 SLOAD DUP2 LT PUSH2 0x1320 JUMPI PUSH2 0x1320 PUSH2 0x1C83 JUMP JUMPDEST PUSH1 0x0 SWAP2 DUP3 MSTORE PUSH1 0x20 SWAP1 SWAP2 KECCAK256 PUSH1 0x4 SWAP1 SWAP2 MUL ADD SLOAD PUSH1 0x1 PUSH1 0x1 PUSH1 0xA0 SHL SUB AND EQ ISZERO PUSH2 0x1345 JUMPI SWAP2 SWAP1 POP JUMP JUMPDEST DUP1 PUSH2 0x134F DUP2 PUSH2 0x1CAF JUMP JUMPDEST SWAP2 POP POP PUSH2 0x12F9 JUMP JUMPDEST SWAP2 SWAP1 POP JUMP JUMPDEST PUSH1 0x0 SLOAD PUSH1 0x1 PUSH1 0x1 PUSH1 0xA0 SHL SUB AND CALLER EQ PUSH2 0x13C7 JUMPI PUSH1 0x40 MLOAD PUSH3 0x461BCD PUSH1 0xE5 SHL DUP2 MSTORE PUSH1 0x20 PUSH1 0x4 DUP3 ADD MSTORE PUSH1 0x28 PUSH1 0x24 DUP3 ADD MSTORE PUSH32 0x46756E6374696F6E2061636365737369626C65206F6E6C792062792074686520 PUSH1 0x44 DUP3 ADD MSTORE PUSH8 0x6F776E6572202121 PUSH1 0xC0 SHL PUSH1 0x64 DUP3 ADD MSTORE PUSH1 0x84 ADD PUSH2 0x7BF JUMP JUMPDEST PUSH1 0x0 PUSH2 0x13D4 PUSH1 0x2 DUP6 PUSH2 0x1D7D JUMP JUMPDEST SWAP1 POP PUSH1 0x0 PUSH2 0x13E3 PUSH1 0x2 DUP6 PUSH2 0x1D7D JUMP JUMPDEST SWAP1 POP PUSH1 0x0 PUSH2 0x13F2 PUSH1 0x2 DUP6 PUSH2 0x1D7D JUMP JUMPDEST PUSH1 0x40 DUP1 MLOAD PUSH1 0x80 DUP2 ADD DUP3 MSTORE PUSH1 0x1 PUSH1 0x1 PUSH1 0xA0 SHL SUB DUP11 DUP2 AND DUP3 MSTORE PUSH1 0x20 DUP3 ADD DUP8 DUP2 MSTORE SWAP3 DUP3 ADD DUP7 DUP2 MSTORE PUSH1 0x60 DUP4 ADD DUP6 DUP2 MSTORE PUSH1 0x1 DUP1 SLOAD DUP1 DUP3 ADD DUP3 SSTORE PUSH1 0x0 SWAP2 DUP3 MSTORE DUP6 MLOAD PUSH32 0xB10E2D527612073B26EECDFD717E6A320CF44B4AFAC2B0732D9FCBE2B7FA0CF6 PUSH1 0x4 SWAP1 SWAP3 MUL SWAP2 DUP3 ADD DUP1 SLOAD PUSH1 0x1 PUSH1 0x1 PUSH1 0xA0 SHL SUB NOT AND SWAP2 SWAP1 SWAP7 AND OR SWAP1 SWAP5 SSTORE SWAP5 MLOAD PUSH32 0xB10E2D527612073B26EECDFD717E6A320CF44B4AFAC2B0732D9FCBE2B7FA0CF7 DUP5 ADD SSTORE SWAP1 MLOAD PUSH32 0xB10E2D527612073B26EECDFD717E6A320CF44B4AFAC2B0732D9FCBE2B7FA0CF8 DUP4 ADD SSTORE MLOAD PUSH32 0xB10E2D527612073B26EECDFD717E6A320CF44B4AFAC2B0732D9FCBE2B7FA0CF9 SWAP1 SWAP2 ADD SSTORE SWAP2 SWAP3 POP JUMPDEST PUSH1 0x3 SLOAD DUP2 LT ISZERO PUSH2 0x1539 JUMPI DUP9 PUSH1 0x1 PUSH1 0x1 PUSH1 0xA0 SHL SUB AND PUSH1 0x3 DUP3 DUP2 SLOAD DUP2 LT PUSH2 0x1507 JUMPI PUSH2 0x1507 PUSH2 0x1C83 JUMP JUMPDEST PUSH1 0x0 SWAP2 DUP3 MSTORE PUSH1 0x20 SWAP1 SWAP2 KECCAK256 ADD SLOAD PUSH1 0x1 PUSH1 0x1 PUSH1 0xA0 SHL SUB AND EQ ISZERO PUSH2 0x1527 JUMPI PUSH2 0x1539 JUMP JUMPDEST DUP1 PUSH2 0x1531 DUP2 PUSH2 0x1CAF JUMP JUMPDEST SWAP2 POP POP PUSH2 0x14E0 JUMP JUMPDEST PUSH1 0x3 SLOAD DUP2 LT ISZERO PUSH2 0xB69 JUMPI PUSH1 0x3 DUP2 DUP2 SLOAD DUP2 LT PUSH2 0x1556 JUMPI PUSH2 0x1556 PUSH2 0x1C83 JUMP JUMPDEST PUSH1 0x0 SWAP2 DUP3 MSTORE PUSH1 0x20 SWAP1 SWAP2 KECCAK256 ADD DUP1 SLOAD PUSH1 0x1 PUSH1 0x1 PUSH1 0xA0 SHL SUB NOT AND SWAP1 SSTORE POP POP POP POP POP POP POP POP POP JUMP JUMPDEST PUSH2 0x1582 PUSH2 0x1865 JUMP JUMPDEST PUSH1 0x0 PUSH2 0x158D CALLER PUSH2 0x161C JUMP JUMPDEST SWAP1 POP PUSH1 0x40 MLOAD DUP1 PUSH1 0x60 ADD PUSH1 0x40 MSTORE DUP1 PUSH1 0x1 DUP4 DUP2 SLOAD DUP2 LT PUSH2 0x15AD JUMPI PUSH2 0x15AD PUSH2 0x1C83 JUMP JUMPDEST SWAP1 PUSH1 0x0 MSTORE PUSH1 0x20 PUSH1 0x0 KECCAK256 SWAP1 PUSH1 0x4 MUL ADD PUSH1 0x1 ADD SLOAD DUP2 MSTORE PUSH1 0x20 ADD PUSH1 0x1 DUP4 DUP2 SLOAD DUP2 LT PUSH2 0x15D7 JUMPI PUSH2 0x15D7 PUSH2 0x1C83 JUMP JUMPDEST SWAP1 PUSH1 0x0 MSTORE PUSH1 0x20 PUSH1 0x0 KECCAK256 SWAP1 PUSH1 0x4 MUL ADD PUSH1 0x2 ADD SLOAD DUP2 MSTORE PUSH1 0x20 ADD PUSH1 0x1 DUP4 DUP2 SLOAD DUP2 LT PUSH2 0x1601 JUMPI PUSH2 0x1601 PUSH2 0x1C83 JUMP JUMPDEST SWAP1 PUSH1 0x0 MSTORE PUSH1 0x20 PUSH1 0x0 KECCAK256 SWAP1 PUSH1 0x4 MUL ADD PUSH1 0x3 ADD SLOAD DUP2 MSTORE POP SWAP2 POP POP SWAP1 JUMP JUMPDEST PUSH1 0x0 DUP1 JUMPDEST PUSH1 0x1 SLOAD DUP2 LT ISZERO PUSH2 0x167F JUMPI DUP3 PUSH1 0x1 PUSH1 0x1 PUSH1 0xA0 SHL SUB AND PUSH1 0x1 DUP3 DUP2 SLOAD DUP2 LT PUSH2 0x1647 JUMPI PUSH2 0x1647 PUSH2 0x1C83 JUMP JUMPDEST PUSH1 0x0 SWAP2 DUP3 MSTORE PUSH1 0x20 SWAP1 SWAP2 KECCAK256 PUSH1 0x4 SWAP1 SWAP2 MUL ADD SLOAD PUSH1 0x1 PUSH1 0x1 PUSH1 0xA0 SHL SUB AND EQ ISZERO PUSH2 0x166D JUMPI SWAP3 SWAP2 POP POP JUMP JUMPDEST DUP1 PUSH2 0x1677 DUP2 PUSH2 0x1CAF JUMP JUMPDEST SWAP2 POP POP PUSH2 0x1620 JUMP JUMPDEST SWAP3 SWAP2 POP POP JUMP JUMPDEST PUSH1 0x60 PUSH1 0x3 DUP1 SLOAD DUP1 PUSH1 0x20 MUL PUSH1 0x20 ADD PUSH1 0x40 MLOAD SWAP1 DUP2 ADD PUSH1 0x40 MSTORE DUP1 SWAP3 SWAP2 SWAP1 DUP2 DUP2 MSTORE PUSH1 0x20 ADD DUP3 DUP1 SLOAD DUP1 ISZERO PUSH2 0x16DD JUMPI PUSH1 0x20 MUL DUP3 ADD SWAP2 SWAP1 PUSH1 0x0 MSTORE PUSH1 0x20 PUSH1 0x0 KECCAK256 SWAP1 JUMPDEST DUP2 SLOAD PUSH1 0x1 PUSH1 0x1 PUSH1 0xA0 SHL SUB AND DUP2 MSTORE PUSH1 0x1 SWAP1 SWAP2 ADD SWAP1 PUSH1 0x20 ADD DUP1 DUP4 GT PUSH2 0x16BF JUMPI JUMPDEST POP POP POP POP POP SWAP1 POP SWAP1 JUMP JUMPDEST PUSH1 0x0 DUP1 PUSH2 0x16F3 CALLER PUSH2 0x161C JUMP JUMPDEST PUSH1 0x1 SLOAD SWAP1 SWAP2 POP DUP2 GT ISZERO PUSH2 0x1718 JUMPI PUSH1 0x40 MLOAD PUSH3 0x461BCD PUSH1 0xE5 SHL DUP2 MSTORE PUSH1 0x4 ADD PUSH2 0x7BF SWAP1 PUSH2 0x1D05 JUMP JUMPDEST PUSH1 0x1 DUP2 DUP2 SLOAD DUP2 LT PUSH2 0x172B JUMPI PUSH2 0x172B PUSH2 0x1C83 JUMP JUMPDEST SWAP1 PUSH1 0x0 MSTORE PUSH1 0x20 PUSH1 0x0 KECCAK256 SWAP1 PUSH1 0x4 MUL ADD PUSH1 0x1 ADD SLOAD SWAP2 POP POP SWAP1 JUMP JUMPDEST DUP2 MLOAD DUP2 MLOAD PUSH1 0x0 SWAP2 DUP5 SWAP2 DUP5 SWAP2 SWAP1 DUP2 EQ PUSH2 0x1761 JUMPI PUSH1 0x0 SWAP4 POP POP POP POP PUSH2 0x167F JUMP JUMPDEST PUSH1 0x0 JUMPDEST DUP2 DUP2 LT ISZERO PUSH2 0x17D8 JUMPI DUP3 DUP2 DUP2 MLOAD DUP2 LT PUSH2 0x177E JUMPI PUSH2 0x177E PUSH2 0x1C83 JUMP JUMPDEST PUSH1 0x20 ADD ADD MLOAD PUSH1 0xF8 SHR PUSH1 0xF8 SHL PUSH1 0x1 PUSH1 0x1 PUSH1 0xF8 SHL SUB NOT AND DUP5 DUP3 DUP2 MLOAD DUP2 LT PUSH2 0x17A5 JUMPI PUSH2 0x17A5 PUSH2 0x1C83 JUMP JUMPDEST ADD PUSH1 0x20 ADD MLOAD PUSH1 0x1 PUSH1 0x1 PUSH1 0xF8 SHL SUB NOT AND EQ PUSH2 0x17C6 JUMPI PUSH1 0x0 SWAP5 POP POP POP POP POP PUSH2 0x167F JUMP JUMPDEST DUP1 PUSH2 0x17D0 DUP2 PUSH2 0x1CAF JUMP JUMPDEST SWAP2 POP POP PUSH2 0x1764 JUMP JUMPDEST POP PUSH1 0x1 SWAP7 SWAP6 POP POP POP POP POP POP JUMP JUMPDEST DUP3 DUP1 SLOAD PUSH2 0x17F1 SWAP1 PUSH2 0x1CCA JUMP JUMPDEST SWAP1 PUSH1 0x0 MSTORE PUSH1 0x20 PUSH1 0x0 KECCAK256 SWAP1 PUSH1 0x1F ADD PUSH1 0x20 SWAP1 DIV DUP2 ADD SWAP3 DUP3 PUSH2 0x1813 JUMPI PUSH1 0x0 DUP6 SSTORE PUSH2 0x1859 JUMP JUMPDEST DUP3 PUSH1 0x1F LT PUSH2 0x182C JUMPI DUP1 MLOAD PUSH1 0xFF NOT AND DUP4 DUP1 ADD OR DUP6 SSTORE PUSH2 0x1859 JUMP JUMPDEST DUP3 DUP1 ADD PUSH1 0x1 ADD DUP6 SSTORE DUP3 ISZERO PUSH2 0x1859 JUMPI SWAP2 DUP3 ADD JUMPDEST DUP3 DUP2 GT ISZERO PUSH2 0x1859 JUMPI DUP3 MLOAD DUP3 SSTORE SWAP2 PUSH1 0x20 ADD SWAP2 SWAP1 PUSH1 0x1 ADD SWAP1 PUSH2 0x183E JUMP JUMPDEST POP PUSH2 0xEE4 SWAP3 SWAP2 POP PUSH2 0x1883 JUMP JUMPDEST PUSH1 0x40 MLOAD DUP1 PUSH1 0x60 ADD PUSH1 0x40 MSTORE DUP1 PUSH1 0x3 SWAP1 PUSH1 0x20 DUP3 MUL DUP1 CALLDATASIZE DUP4 CALLDATACOPY POP SWAP2 SWAP3 SWAP2 POP POP JUMP JUMPDEST JUMPDEST DUP1 DUP3 GT ISZERO PUSH2 0xEE4 JUMPI PUSH1 0x0 DUP2 SSTORE PUSH1 0x1 ADD PUSH2 0x1884 JUMP JUMPDEST PUSH1 0x0 DUP2 MLOAD DUP1 DUP5 MSTORE PUSH1 0x0 JUMPDEST DUP2 DUP2 LT ISZERO PUSH2 0x18BE JUMPI PUSH1 0x20 DUP2 DUP6 ADD DUP2 ADD MLOAD DUP7 DUP4 ADD DUP3 ADD MSTORE ADD PUSH2 0x18A2 JUMP JUMPDEST DUP2 DUP2 GT ISZERO PUSH2 0x18D0 JUMPI PUSH1 0x0 PUSH1 0x20 DUP4 DUP8 ADD ADD MSTORE JUMPDEST POP PUSH1 0x1F ADD PUSH1 0x1F NOT AND SWAP3 SWAP1 SWAP3 ADD PUSH1 0x20 ADD SWAP3 SWAP2 POP POP JUMP JUMPDEST PUSH1 0x0 PUSH1 0x20 DUP1 DUP4 ADD DUP2 DUP5 MSTORE DUP1 DUP6 MLOAD DUP1 DUP4 MSTORE PUSH1 0x40 SWAP3 POP DUP3 DUP7 ADD SWAP2 POP DUP3 DUP2 PUSH1 0x5 SHL DUP8 ADD ADD DUP5 DUP9 ADD PUSH1 0x0 JUMPDEST DUP4 DUP2 LT ISZERO PUSH2 0x19A7 JUMPI DUP9 DUP4 SUB PUSH1 0x3F NOT ADD DUP6 MSTORE DUP2 MLOAD DUP1 MLOAD PUSH1 0x1 PUSH1 0x1 PUSH1 0xA0 SHL SUB SWAP1 DUP2 AND DUP6 MSTORE DUP9 DUP3 ADD MLOAD AND DUP9 DUP6 ADD MSTORE DUP7 DUP2 ADD MLOAD PUSH1 0xC0 DUP9 DUP7 ADD DUP2 SWAP1 MSTORE SWAP1 PUSH2 0x1950 DUP3 DUP8 ADD DUP3 PUSH2 0x1898 JUMP JUMPDEST SWAP2 POP POP PUSH1 0x60 DUP1 DUP4 ADD MLOAD DUP7 DUP4 SUB DUP3 DUP9 ADD MSTORE PUSH2 0x196A DUP4 DUP3 PUSH2 0x1898 JUMP JUMPDEST SWAP3 POP POP POP PUSH1 0x80 DUP1 DUP4 ADD MLOAD DUP2 DUP8 ADD MSTORE POP PUSH1 0xA0 DUP1 DUP4 ADD MLOAD SWAP3 POP DUP6 DUP3 SUB DUP2 DUP8 ADD MSTORE POP PUSH2 0x1993 DUP2 DUP4 PUSH2 0x1898 JUMP JUMPDEST SWAP7 DUP10 ADD SWAP7 SWAP5 POP POP POP SWAP1 DUP7 ADD SWAP1 PUSH1 0x1 ADD PUSH2 0x190C JUMP JUMPDEST POP SWAP1 SWAP9 SWAP8 POP POP POP POP POP POP POP POP JUMP JUMPDEST PUSH4 0x4E487B71 PUSH1 0xE0 SHL PUSH1 0x0 MSTORE PUSH1 0x41 PUSH1 0x4 MSTORE PUSH1 0x24 PUSH1 0x0 REVERT JUMPDEST PUSH1 0x0 PUSH8 0xFFFFFFFFFFFFFFFF DUP1 DUP5 GT ISZERO PUSH2 0x19E6 JUMPI PUSH2 0x19E6 PUSH2 0x19B5 JUMP JUMPDEST PUSH1 0x40 MLOAD PUSH1 0x1F DUP6 ADD PUSH1 0x1F NOT SWAP1 DUP2 AND PUSH1 0x3F ADD AND DUP2 ADD SWAP1 DUP3 DUP3 GT DUP2 DUP4 LT OR ISZERO PUSH2 0x1A0E JUMPI PUSH2 0x1A0E PUSH2 0x19B5 JUMP JUMPDEST DUP2 PUSH1 0x40 MSTORE DUP1 SWAP4 POP DUP6 DUP2 MSTORE DUP7 DUP7 DUP7 ADD GT ISZERO PUSH2 0x1A27 JUMPI PUSH1 0x0 DUP1 REVERT JUMPDEST DUP6 DUP6 PUSH1 0x20 DUP4 ADD CALLDATACOPY PUSH1 0x0 PUSH1 0x20 DUP8 DUP4 ADD ADD MSTORE POP POP POP SWAP4 SWAP3 POP POP POP JUMP JUMPDEST PUSH1 0x0 DUP3 PUSH1 0x1F DUP4 ADD SLT PUSH2 0x1A52 JUMPI PUSH1 0x0 DUP1 REVERT JUMPDEST PUSH2 0x1A61 DUP4 DUP4 CALLDATALOAD PUSH1 0x20 DUP6 ADD PUSH2 0x19CB JUMP JUMPDEST SWAP4 SWAP3 POP POP POP JUMP JUMPDEST PUSH1 0x0 DUP1 PUSH1 0x0 DUP1 PUSH1 0x80 DUP6 DUP8 SUB SLT ISZERO PUSH2 0x1A7E JUMPI PUSH1 0x0 DUP1 REVERT JUMPDEST DUP5 CALLDATALOAD PUSH8 0xFFFFFFFFFFFFFFFF DUP1 DUP3 GT ISZERO PUSH2 0x1A96 JUMPI PUSH1 0x0 DUP1 REVERT JUMPDEST PUSH2 0x1AA2 DUP9 DUP4 DUP10 ADD PUSH2 0x1A41 JUMP JUMPDEST SWAP6 POP PUSH1 0x20 DUP8 ADD CALLDATALOAD SWAP2 POP DUP1 DUP3 GT ISZERO PUSH2 0x1AB8 JUMPI PUSH1 0x0 DUP1 REVERT JUMPDEST PUSH2 0x1AC4 DUP9 DUP4 DUP10 ADD PUSH2 0x1A41 JUMP JUMPDEST SWAP5 POP PUSH1 0x40 DUP8 ADD CALLDATALOAD SWAP4 POP PUSH1 0x60 DUP8 ADD CALLDATALOAD SWAP2 POP DUP1 DUP3 GT ISZERO PUSH2 0x1AE1 JUMPI PUSH1 0x0 DUP1 REVERT JUMPDEST POP PUSH2 0x1AEE DUP8 DUP3 DUP9 ADD PUSH2 0x1A41 JUMP JUMPDEST SWAP2 POP POP SWAP3 SWAP6 SWAP2 SWAP5 POP SWAP3 POP JUMP JUMPDEST DUP1 CALLDATALOAD PUSH1 0x1 PUSH1 0x1 PUSH1 0xA0 SHL SUB DUP2 AND DUP2 EQ PUSH2 0x1357 JUMPI PUSH1 0x0 DUP1 REVERT JUMPDEST PUSH1 0x0 DUP1 PUSH1 0x0 DUP1 PUSH1 0x80 DUP6 DUP8 SUB SLT ISZERO PUSH2 0x1B27 JUMPI PUSH1 0x0 DUP1 REVERT JUMPDEST PUSH2 0x1B30 DUP6 PUSH2 0x1AFA JUMP JUMPDEST SWAP4 POP PUSH1 0x20 DUP6 ADD CALLDATALOAD PUSH8 0xFFFFFFFFFFFFFFFF DUP1 DUP3 GT ISZERO PUSH2 0x1AB8 JUMPI PUSH1 0x0 DUP1 REVERT JUMPDEST PUSH1 0x0 PUSH1 0x20 DUP3 DUP5 SUB SLT ISZERO PUSH2 0x1B5F JUMPI PUSH1 0x0 DUP1 REVERT JUMPDEST DUP2 CALLDATALOAD PUSH8 0xFFFFFFFFFFFFFFFF DUP2 GT ISZERO PUSH2 0x1B76 JUMPI PUSH1 0x0 DUP1 REVERT JUMPDEST DUP3 ADD PUSH1 0x1F DUP2 ADD DUP5 SGT PUSH2 0x1B87 JUMPI PUSH1 0x0 DUP1 REVERT JUMPDEST PUSH2 0x1B96 DUP5 DUP3 CALLDATALOAD PUSH1 0x20 DUP5 ADD PUSH2 0x19CB JUMP JUMPDEST SWAP5 SWAP4 POP POP POP POP JUMP JUMPDEST PUSH1 0x20 DUP2 MSTORE PUSH1 0x0 PUSH2 0x1A61 PUSH1 0x20 DUP4 ADD DUP5 PUSH2 0x1898 JUMP JUMPDEST PUSH1 0x0 DUP1 PUSH1 0x0 DUP1 PUSH1 0x80 DUP6 DUP8 SUB SLT ISZERO PUSH2 0x1BC7 JUMPI PUSH1 0x0 DUP1 REVERT JUMPDEST PUSH2 0x1BD0 DUP6 PUSH2 0x1AFA JUMP JUMPDEST SWAP7 PUSH1 0x20 DUP7 ADD CALLDATALOAD SWAP7 POP PUSH1 0x40 DUP7 ADD CALLDATALOAD SWAP6 PUSH1 0x60 ADD CALLDATALOAD SWAP5 POP SWAP3 POP POP POP JUMP JUMPDEST PUSH1 0x60 DUP2 ADD DUP2 DUP4 PUSH1 0x0 JUMPDEST PUSH1 0x3 DUP2 LT ISZERO PUSH2 0x1C12 JUMPI DUP2 MLOAD DUP4 MSTORE PUSH1 0x20 SWAP3 DUP4 ADD SWAP3 SWAP1 SWAP2 ADD SWAP1 PUSH1 0x1 ADD PUSH2 0x1BF3 JUMP JUMPDEST POP POP POP SWAP3 SWAP2 POP POP JUMP JUMPDEST PUSH1 0x0 PUSH1 0x20 DUP3 DUP5 SUB SLT ISZERO PUSH2 0x1C2D JUMPI PUSH1 0x0 DUP1 REVERT JUMPDEST PUSH2 0x1A61 DUP3 PUSH2 0x1AFA JUMP JUMPDEST PUSH1 0x20 DUP1 DUP3 MSTORE DUP3 MLOAD DUP3 DUP3 ADD DUP2 SWAP1 MSTORE PUSH1 0x0 SWAP2 SWAP1 DUP5 DUP3 ADD SWAP1 PUSH1 0x40 DUP6 ADD SWAP1 DUP5 JUMPDEST DUP2 DUP2 LT ISZERO PUSH2 0x1C77 JUMPI DUP4 MLOAD PUSH1 0x1 PUSH1 0x1 PUSH1 0xA0 SHL SUB AND DUP4 MSTORE SWAP3 DUP5 ADD SWAP3 SWAP2 DUP5 ADD SWAP2 PUSH1 0x1 ADD PUSH2 0x1C52 JUMP JUMPDEST POP SWAP1 SWAP7 SWAP6 POP POP POP POP POP POP JUMP JUMPDEST PUSH4 0x4E487B71 PUSH1 0xE0 SHL PUSH1 0x0 MSTORE PUSH1 0x32 PUSH1 0x4 MSTORE PUSH1 0x24 PUSH1 0x0 REVERT JUMPDEST PUSH4 0x4E487B71 PUSH1 0xE0 SHL PUSH1 0x0 MSTORE PUSH1 0x11 PUSH1 0x4 MSTORE PUSH1 0x24 PUSH1 0x0 REVERT JUMPDEST PUSH1 0x0 PUSH1 0x0 NOT DUP3 EQ ISZERO PUSH2 0x1CC3 JUMPI PUSH2 0x1CC3 PUSH2 0x1C99 JUMP JUMPDEST POP PUSH1 0x1 ADD SWAP1 JUMP JUMPDEST PUSH1 0x1 DUP2 DUP2 SHR SWAP1 DUP3 AND DUP1 PUSH2 0x1CDE JUMPI PUSH1 0x7F DUP3 AND SWAP2 POP JUMPDEST PUSH1 0x20 DUP3 LT DUP2 EQ ISZERO PUSH2 0x1CFF JUMPI PUSH4 0x4E487B71 PUSH1 0xE0 SHL PUSH1 0x0 MSTORE PUSH1 0x22 PUSH1 0x4 MSTORE PUSH1 0x24 PUSH1 0x0 REVERT JUMPDEST POP SWAP2 SWAP1 POP JUMP JUMPDEST PUSH1 0x20 DUP1 DUP3 MSTORE PUSH1 0x10 SWAP1 DUP3 ADD MSTORE PUSH16 0x155CD95C88139BDD08105B1B1BDDD959 PUSH1 0x82 SHL PUSH1 0x40 DUP3 ADD MSTORE PUSH1 0x60 ADD SWAP1 JUMP JUMPDEST PUSH1 0x0 DUP3 DUP3 LT ISZERO PUSH2 0x1D41 JUMPI PUSH2 0x1D41 PUSH2 0x1C99 JUMP JUMPDEST POP SUB SWAP1 JUMP JUMPDEST PUSH1 0x0 DUP3 NOT DUP3 GT ISZERO PUSH2 0x1D59 JUMPI PUSH2 0x1D59 PUSH2 0x1C99 JUMP JUMPDEST POP ADD SWAP1 JUMP JUMPDEST PUSH1 0x0 DUP2 PUSH1 0x0 NOT DIV DUP4 GT DUP3 ISZERO ISZERO AND ISZERO PUSH2 0x1D78 JUMPI PUSH2 0x1D78 PUSH2 0x1C99 JUMP JUMPDEST POP MUL SWAP1 JUMP JUMPDEST PUSH1 0x0 DUP3 PUSH2 0x1D9A JUMPI PUSH4 0x4E487B71 PUSH1 0xE0 SHL PUSH1 0x0 MSTORE PUSH1 0x12 PUSH1 0x4 MSTORE PUSH1 0x24 PUSH1 0x0 REVERT JUMPDEST POP DIV SWAP1 JUMP INVALID LOG2 PUSH5 0x6970667358 0x22 SLT KECCAK256 DUP8 0xB3 PUSH23 0x94107F588D1B376F1A62F882E9934C94A10FF312E3B31F PUSH25 0x1518FC207E64736F6C63430008090033000000000000000000 "},"methodIdentifiers":{"addUser(address,uint256,uint256,uint256)":"c51fe374","convert_reward_point(string,string,uint256,string)":"1f89665e","customerAddFunction()":"b2e36c9d","getCustomerRequestsArray()":"d8e6513d","get_All_Transactions()":"0f869485","get_address()":"0131222f","get_allPoints()":"ca6f12d1","get_amazonPoint()":"fe37ebe5","get_flipkartPoint()":"7c03c68a","get_myntraPoint()":"a05ad491","get_user_index(address)":"d1815712","isOwner()":"8f32d59b","owner()":"8da5cb5b","retrieve_user_index()":"c36374f7","toString(bytes)":"71aad10d","transfer_reward_friend(address,string,uint256,string)":"2a7c6985","validate_User()":"6534d30c"}}}}}