{
  "_format": "hh-sol-artifact-1",
  "contractName": "Loyalty",
  "sourceName": "contracts/Loyalty.sol",
  "abi": [
    {
      "inputs": [],
      "stateMutability": "nonpayable",
      "type": "constructor"
    },
    {
      "anonymous": false,
      "inputs": [
        {
          "indexed": false,
          "internalType": "address",
          "name": "from",
          "type": "address"
        },
        {
          "indexed": false,
          "internalType": "address",
          "name": "receiver",
          "type": "address"
        },
        {
          "indexed": false,
          "internalType": "uint256",
          "name": "amount",
          "type": "uint256"
        },
        {
          "indexed": false,
          "internalType": "string",
          "name": "message",
          "type": "string"
        },
        {
          "indexed": false,
          "internalType": "uint256",
          "name": "timestamp",
          "type": "uint256"
        },
        {
          "indexed": false,
          "internalType": "string",
          "name": "keyword",
          "type": "string"
        }
      ],
      "name": "Transfer",
      "type": "event"
    },
    {
      "inputs": [
        {
          "internalType": "address",
          "name": "user_address",
          "type": "address"
        },
        {
          "internalType": "uint256",
          "name": "amazonPoint",
          "type": "uint256"
        },
        {
          "internalType": "uint256",
          "name": "flipkartPoint",
          "type": "uint256"
        },
        {
          "internalType": "uint256",
          "name": "myntraPoint",
          "type": "uint256"
        }
      ],
      "name": "addUser",
      "outputs": [],
      "stateMutability": "payable",
      "type": "function"
    },
    {
      "inputs": [
        {
          "internalType": "string",
          "name": "source_company_name",
          "type": "string"
        },
        {
          "internalType": "string",
          "name": "destination_company_name",
          "type": "string"
        },
        {
          "internalType": "uint256",
          "name": "points_to_convert",
          "type": "uint256"
        },
        {
          "internalType": "string",
          "name": "TimeStamp",
          "type": "string"
        }
      ],
      "name": "convert_reward_point",
      "outputs": [],
      "stateMutability": "payable",
      "type": "function"
    },
    {
      "inputs": [],
      "name": "customerAddFunction",
      "outputs": [
        {
          "internalType": "uint256",
          "name": "",
          "type": "uint256"
        }
      ],
      "stateMutability": "nonpayable",
      "type": "function"
    },
    {
      "inputs": [],
      "name": "getCustomerRequestsArray",
      "outputs": [
        {
          "internalType": "address[]",
          "name": "",
          "type": "address[]"
        }
      ],
      "stateMutability": "view",
      "type": "function"
    },
    {
      "inputs": [],
      "name": "get_All_Transactions",
      "outputs": [
        {
          "components": [
            {
              "internalType": "address",
              "name": "sender_address",
              "type": "address"
            },
            {
              "internalType": "address",
              "name": "receiver_address",
              "type": "address"
            },
            {
              "internalType": "string",
              "name": "source_company_name",
              "type": "string"
            },
            {
              "internalType": "string",
              "name": "destination_company_name",
              "type": "string"
            },
            {
              "internalType": "uint256",
              "name": "reward_points",
              "type": "uint256"
            },
            {
              "internalType": "string",
              "name": "timestamp",
              "type": "string"
            }
          ],
          "internalType": "struct Loyalty.Transaction[]",
          "name": "",
          "type": "tuple[]"
        }
      ],
      "stateMutability": "view",
      "type": "function"
    },
    {
      "inputs": [],
      "name": "get_address",
      "outputs": [
        {
          "internalType": "address",
          "name": "",
          "type": "address"
        }
      ],
      "stateMutability": "view",
      "type": "function"
    },
    {
      "inputs": [],
      "name": "get_allPoints",
      "outputs": [
        {
          "internalType": "uint256[3]",
          "name": "",
          "type": "uint256[3]"
        }
      ],
      "stateMutability": "view",
      "type": "function"
    },
    {
      "inputs": [],
      "name": "get_amazonPoint",
      "outputs": [
        {
          "internalType": "uint256",
          "name": "",
          "type": "uint256"
        }
      ],
      "stateMutability": "view",
      "type": "function"
    },
    {
      "inputs": [],
      "name": "get_flipkartPoint",
      "outputs": [
        {
          "internalType": "uint256",
          "name": "",
          "type": "uint256"
        }
      ],
      "stateMutability": "view",
      "type": "function"
    },
    {
      "inputs": [],
      "name": "get_myntraPoint",
      "outputs": [
        {
          "internalType": "uint256",
          "name": "",
          "type": "uint256"
        }
      ],
      "stateMutability": "view",
      "type": "function"
    },
    {
      "inputs": [
        {
          "internalType": "address",
          "name": "user_address",
          "type": "address"
        }
      ],
      "name": "get_user_index",
      "outputs": [
        {
          "internalType": "uint256",
          "name": "",
          "type": "uint256"
        }
      ],
      "stateMutability": "view",
      "type": "function"
    },
    {
      "inputs": [],
      "name": "isOwner",
      "outputs": [
        {
          "internalType": "bool",
          "name": "",
          "type": "bool"
        }
      ],
      "stateMutability": "view",
      "type": "function"
    },
    {
      "inputs": [],
      "name": "owner",
      "outputs": [
        {
          "internalType": "address",
          "name": "",
          "type": "address"
        }
      ],
      "stateMutability": "view",
      "type": "function"
    },
    {
      "inputs": [],
      "name": "retrieve_user_index",
      "outputs": [
        {
          "internalType": "uint256",
          "name": "",
          "type": "uint256"
        }
      ],
      "stateMutability": "view",
      "type": "function"
    },
    {
      "inputs": [
        {
          "internalType": "bytes",
          "name": "data",
          "type": "bytes"
        }
      ],
      "name": "toString",
      "outputs": [
        {
          "internalType": "string",
          "name": "",
          "type": "string"
        }
      ],
      "stateMutability": "pure",
      "type": "function"
    },
    {
      "inputs": [
        {
          "internalType": "address",
          "name": "receiver",
          "type": "address"
        },
        {
          "internalType": "string",
          "name": "company_name",
          "type": "string"
        },
        {
          "internalType": "uint256",
          "name": "points_to_convert",
          "type": "uint256"
        },
        {
          "internalType": "string",
          "name": "TimeStamp",
          "type": "string"
        }
      ],
      "name": "transfer_reward_friend",
      "outputs": [],
      "stateMutability": "payable",
      "type": "function"
    },
    {
      "inputs": [],
      "name": "validate_User",
      "outputs": [
        {
          "internalType": "bool",
          "name": "",
          "type": "bool"
        }
      ],
      "stateMutability": "view",
      "type": "function"
    }
  ],
  "bytecode": "0x608060405234801561001057600080fd5b50600080546001600160a01b03191633179055611dd5806100326000396000f3fe6080604052600436106100fe5760003560e01c80638f32d59b11610095578063c51fe37411610064578063c51fe3741461026b578063ca6f12d11461027e578063d1815712146102a0578063d8e6513d146102c0578063fe37ebe5146102e257600080fd5b80638f32d59b1461020c578063a05ad4911461022c578063b2e36c9d14610241578063c36374f71461025657600080fd5b80636534d30c116100d15780636534d30c1461017957806371aad10d1461019e5780637c03c68a146101cb5780638da5cb5b146101ee57600080fd5b80630131222f146101035780630f8694851461012f5780631f89665e146101515780632a7c698514610166575b600080fd5b34801561010f57600080fd5b50335b6040516001600160a01b0390911681526020015b60405180910390f35b34801561013b57600080fd5b506101446102f7565b60405161012691906118e5565b61016461015f366004611a68565b61078f565b005b610164610174366004611b11565b610b74565b34801561018557600080fd5b5061018e610ebb565b6040519015158152602001610126565b3480156101aa57600080fd5b506101be6101b9366004611b4d565b610ee8565b6040516101269190611b9e565b3480156101d757600080fd5b506101e0611101565b604051908152602001610126565b3480156101fa57600080fd5b506000546001600160a01b0316610112565b34801561021857600080fd5b506000546001600160a01b0316331461018e565b34801561023857600080fd5b506101e061115d565b34801561024d57600080fd5b506101e06111b9565b34801561026257600080fd5b506101e06112f5565b610164610279366004611bb1565b61135c565b34801561028a57600080fd5b5061029361157a565b6040516101269190611bea565b3480156102ac57600080fd5b506101e06102bb366004611c1b565b61161c565b3480156102cc57600080fd5b506102d5611685565b6040516101269190611c36565b3480156102ee57600080fd5b506101e06116e7565b6060600080339050600061033c82604051602001610328919060609190911b6001600160601b031916815260140190565b604051602081830303815290604052610ee8565b905060608060005b60025481101561043c576103a26002828154811061036457610364611c83565b600091825260209182902060069091020154604051610328926001600160a01b03909216910160609190911b6001600160601b031916815260140190565b92506103fb600282815481106103ba576103ba611c83565b600091825260209182902060016006909202010154604051610328926001600160a01b03909216910160609190911b6001600160601b031916815260140190565b91506104078484611743565b8061041757506104178483611743565b1561042a578561042681611caf565b9650505b8061043481611caf565b915050610344565b5060008567ffffffffffffffff811115610458576104586119b5565b6040519080825280602002602001820160405280156104d457816020015b6104c16040518060c0016040528060006001600160a01b0316815260200160006001600160a01b03168152602001606081526020016060815260200160008152602001606081525090565b8152602001906001900390816104765790505b5090506000805b600254811015610782576104fb6002828154811061036457610364611c83565b9450610513600282815481106103ba576103ba611c83565b935061051f8686611743565b8061052f575061052f8685611743565b15610770576002818154811061054757610547611c83565b60009182526020918290206040805160c081018252600690930290910180546001600160a01b039081168452600182015416938301939093526002830180549293929184019161059690611cca565b80601f01602080910402602001604051908101604052809291908181526020018280546105c290611cca565b801561060f5780601f106105e45761010080835404028352916020019161060f565b820191906000526020600020905b8154815290600101906020018083116105f257829003601f168201915b5050505050815260200160038201805461062890611cca565b80601f016020809104026020016040519081016040528092919081815260200182805461065490611cca565b80156106a15780601f10610676576101008083540402835291602001916106a1565b820191906000526020600020905b81548152906001019060200180831161068457829003601f168201915b50505050508152602001600482015481526020016005820180546106c490611cca565b80601f01602080910402602001604051908101604052809291908181526020018280546106f090611cca565b801561073d5780601f106107125761010080835404028352916020019161073d565b820191906000526020600020905b81548152906001019060200180831161072057829003601f168201915b50505050508152505083838061075290611caf565b94508151811061076457610764611c83565b60200260200101819052505b8061077a81611caf565b9150506104db565b5090979650505050505050565b600061079a3361161c565b6001549091508111156107c85760405162461bcd60e51b81526004016107bf90611d05565b60405180910390fd5b6107f0856040518060400160405280600681526020016530b6b0bd37b760d11b815250611743565b1561083457826001828154811061080957610809611c83565b906000526020600020906004020160010160008282546108299190611d2f565b909155506108fe9050565b61085e8560405180604001604052806008815260200167199b1a5c1ad85c9d60c21b815250611743565b1561089757826001828154811061087757610877611c83565b906000526020600020906004020160020160008282546108299190611d2f565b6108bf85604051806040016040528060068152602001656d796e74726160d01b815250611743565b156108fe5782600182815481106108d8576108d8611c83565b906000526020600020906004020160030160008282546108f89190611d2f565b90915550505b610926846040518060400160405280600681526020016530b6b0bd37b760d11b815250611743565b1561096a57826001828154811061093f5761093f611c83565b9060005260206000209060040201600101600082825461095f9190611d46565b90915550610a349050565b6109948460405180604001604052806008815260200167199b1a5c1ad85c9d60c21b815250611743565b156109cd5782600182815481106109ad576109ad611c83565b9060005260206000209060040201600201600082825461095f9190611d46565b6109f584604051806040016040528060068152602001656d796e74726160d01b815250611743565b15610a34578260018281548110610a0e57610a0e611c83565b90600052602060002090600402016003016000828254610a2e9190611d46565b90915550505b6040805160c081018252338082526020808301918252928201888152606083018890526080830187905260a0830186905260028054600181018255600091909152835160069091027f405787fa12a823e0f2b7631cc41b3ba8828b3321ca811111fa75cd3aa3bb5ace810180546001600160a01b039384166001600160a01b031991821617825594517f405787fa12a823e0f2b7631cc41b3ba8828b3321ca811111fa75cd3aa3bb5acf83018054919094169516949094179091559051805193948594610b27937f405787fa12a823e0f2b7631cc41b3ba8828b3321ca811111fa75cd3aa3bb5ad00192909101906117e5565b5060608201518051610b439160038401916020909101906117e5565b506080820151600482015560a08201518051610b699160058401916020909101906117e5565b505050505050505050565b6000610b7f3361161c565b90506000610b8c8661161c565b9050610bb6856040518060400160405280600681526020016530b6b0bd37b760d11b815250611743565b15610c35578360018381548110610bcf57610bcf611c83565b90600052602060002090600402016001016000828254610bef9190611d2f565b925050819055508360018281548110610c0a57610c0a611c83565b90600052602060002090600402016001016000828254610c2a9190611d46565b90915550610d759050565b610c5f8560405180604001604052806008815260200167199b1a5c1ad85c9d60c21b815250611743565b15610cd3578360018381548110610c7857610c78611c83565b90600052602060002090600402016002016000828254610c989190611d2f565b925050819055508360018281548110610cb357610cb3611c83565b90600052602060002090600402016002016000828254610c2a9190611d46565b610cfb85604051806040016040528060068152602001656d796e74726160d01b815250611743565b15610d75578360018381548110610d1457610d14611c83565b90600052602060002090600402016003016000828254610d349190611d2f565b925050819055508360018281548110610d4f57610d4f611c83565b90600052602060002090600402016003016000828254610d6f9190611d46565b90915550505b6040805160c0810182523381526001600160a01b038881166020808401918252938301898152606084018a90526080840189905260a0840188905260028054600181018255600091909152845160069091027f405787fa12a823e0f2b7631cc41b3ba8828b3321ca811111fa75cd3aa3bb5ace810180549286166001600160a01b031993841617815593517f405787fa12a823e0f2b7631cc41b3ba8828b3321ca811111fa75cd3aa3bb5acf8201805491909616921691909117909355518051939485949293610e6d937f405787fa12a823e0f2b7631cc41b3ba8828b3321ca811111fa75cd3aa3bb5ad090910192909101906117e5565b5060608201518051610e899160038401916020909101906117e5565b506080820151600482015560a08201518051610eaf9160058401916020909101906117e5565b50505050505050505050565b600080610ec73361161c565b600154909150811015610edc57600191505090565b600091505090565b5090565b60408051808201909152601081526f181899199a1a9b1b9c1cb0b131b232b360811b6020820152815160609190600090610f23906002611d5e565b610f2e906002611d46565b67ffffffffffffffff811115610f4657610f466119b5565b6040519080825280601f01601f191660200182016040528015610f70576020820181803683370190505b509050600360fc1b81600081518110610f8b57610f8b611c83565b60200101906001600160f81b031916908160001a905350600f60fb1b81600181518110610fba57610fba611c83565b60200101906001600160f81b031916908160001a90535060005b84518110156110f957826004868381518110610ff257610ff2611c83565b016020015182516001600160f81b031990911690911c60f81c90811061101a5761101a611c83565b01602001516001600160f81b03191682611035836002611d5e565b611040906002611d46565b8151811061105057611050611c83565b60200101906001600160f81b031916908160001a9053508285828151811061107a5761107a611c83565b602091010151815160f89190911c600f1690811061109a5761109a611c83565b01602001516001600160f81b031916826110b5836002611d5e565b6110c0906003611d46565b815181106110d0576110d0611c83565b60200101906001600160f81b031916908160001a905350806110f181611caf565b915050610fd4565b509392505050565b60008061110d3361161c565b6001549091508111156111325760405162461bcd60e51b81526004016107bf90611d05565b6001818154811061114557611145611c83565b90600052602060002090600402016002015491505090565b6000806111693361161c565b60015490915081111561118e5760405162461bcd60e51b81526004016107bf90611d05565b600181815481106111a1576111a1611c83565b90600052602060002090600402016003015491505090565b60003381805b60015481101561121d57826001600160a01b0316600182815481106111e6576111e6611c83565b60009182526020909120600490910201546001600160a01b0316141561120b5761121d565b8061121581611caf565b9150506111bf565b600154811015611231576001935050505090565b60035482101561128a57826001600160a01b03166003838154811061125857611258611c83565b6000918252602090912001546001600160a01b031614156112785761128a565b8161128281611caf565b925050611231565b60035482101561129e576002935050505090565b50506003805460018101825560008290527fc2575a0e9e593c00f959f8c92f12db2869c3395a3b0502d05e2516446f71f85b0180546001600160a01b0319166001600160a01b039390931692909217909155919050565b6000805b60015481101561135757336001600160a01b03166001828154811061132057611320611c83565b60009182526020909120600490910201546001600160a01b0316141561134557919050565b8061134f81611caf565b9150506112f9565b919050565b6000546001600160a01b031633146113c75760405162461bcd60e51b815260206004820152602860248201527f46756e6374696f6e2061636365737369626c65206f6e6c7920627920746865206044820152676f776e657220212160c01b60648201526084016107bf565b60006113d4600285611d7d565b905060006113e3600285611d7d565b905060006113f2600285611d7d565b604080516080810182526001600160a01b038a811682526020820187815292820186815260608301858152600180548082018255600091825285517fb10e2d527612073b26eecdfd717e6a320cf44b4afac2b0732d9fcbe2b7fa0cf6600490920291820180546001600160a01b031916919096161790945594517fb10e2d527612073b26eecdfd717e6a320cf44b4afac2b0732d9fcbe2b7fa0cf784015590517fb10e2d527612073b26eecdfd717e6a320cf44b4afac2b0732d9fcbe2b7fa0cf8830155517fb10e2d527612073b26eecdfd717e6a320cf44b4afac2b0732d9fcbe2b7fa0cf9909101559192505b60035481101561153957886001600160a01b03166003828154811061150757611507611c83565b6000918252602090912001546001600160a01b0316141561152757611539565b8061153181611caf565b9150506114e0565b600354811015610b69576003818154811061155657611556611c83565b600091825260209091200180546001600160a01b0319169055505050505050505050565b611582611865565b600061158d3361161c565b90506040518060600160405280600183815481106115ad576115ad611c83565b9060005260206000209060040201600101548152602001600183815481106115d7576115d7611c83565b90600052602060002090600402016002015481526020016001838154811061160157611601611c83565b90600052602060002090600402016003015481525091505090565b6000805b60015481101561167f57826001600160a01b03166001828154811061164757611647611c83565b60009182526020909120600490910201546001600160a01b0316141561166d5792915050565b8061167781611caf565b915050611620565b92915050565b606060038054806020026020016040519081016040528092919081815260200182805480156116dd57602002820191906000526020600020905b81546001600160a01b031681526001909101906020018083116116bf575b5050505050905090565b6000806116f33361161c565b6001549091508111156117185760405162461bcd60e51b81526004016107bf90611d05565b6001818154811061172b5761172b611c83565b90600052602060002090600402016001015491505090565b8151815160009184918491908114611761576000935050505061167f565b60005b818110156117d85782818151811061177e5761177e611c83565b602001015160f81c60f81b6001600160f81b0319168482815181106117a5576117a5611c83565b01602001516001600160f81b031916146117c657600094505050505061167f565b806117d081611caf565b915050611764565b5060019695505050505050565b8280546117f190611cca565b90600052602060002090601f0160209004810192826118135760008555611859565b82601f1061182c57805160ff1916838001178555611859565b82800160010185558215611859579182015b8281111561185957825182559160200191906001019061183e565b50610ee4929150611883565b60405180606001604052806003906020820280368337509192915050565b5b80821115610ee45760008155600101611884565b6000815180845260005b818110156118be576020818501810151868301820152016118a2565b818111156118d0576000602083870101525b50601f01601f19169290920160200192915050565b60006020808301818452808551808352604092508286019150828160051b87010184880160005b838110156119a757888303603f19018552815180516001600160a01b0390811685528882015116888501528681015160c08886018190529061195082870182611898565b9150506060808301518683038288015261196a8382611898565b92505050608080830151818701525060a080830151925085820381870152506119938183611898565b96890196945050509086019060010161190c565b509098975050505050505050565b634e487b7160e01b600052604160045260246000fd5b600067ffffffffffffffff808411156119e6576119e66119b5565b604051601f8501601f19908116603f01168101908282118183101715611a0e57611a0e6119b5565b81604052809350858152868686011115611a2757600080fd5b858560208301376000602087830101525050509392505050565b600082601f830112611a5257600080fd5b611a61838335602085016119cb565b9392505050565b60008060008060808587031215611a7e57600080fd5b843567ffffffffffffffff80821115611a9657600080fd5b611aa288838901611a41565b95506020870135915080821115611ab857600080fd5b611ac488838901611a41565b9450604087013593506060870135915080821115611ae157600080fd5b50611aee87828801611a41565b91505092959194509250565b80356001600160a01b038116811461135757600080fd5b60008060008060808587031215611b2757600080fd5b611b3085611afa565b9350602085013567ffffffffffffffff80821115611ab857600080fd5b600060208284031215611b5f57600080fd5b813567ffffffffffffffff811115611b7657600080fd5b8201601f81018413611b8757600080fd5b611b96848235602084016119cb565b949350505050565b602081526000611a616020830184611898565b60008060008060808587031215611bc757600080fd5b611bd085611afa565b966020860135965060408601359560600135945092505050565b60608101818360005b6003811015611c12578151835260209283019290910190600101611bf3565b50505092915050565b600060208284031215611c2d57600080fd5b611a6182611afa565b6020808252825182820181905260009190848201906040850190845b81811015611c775783516001600160a01b031683529284019291840191600101611c52565b50909695505050505050565b634e487b7160e01b600052603260045260246000fd5b634e487b7160e01b600052601160045260246000fd5b6000600019821415611cc357611cc3611c99565b5060010190565b600181811c90821680611cde57607f821691505b60208210811415611cff57634e487b7160e01b600052602260045260246000fd5b50919050565b60208082526010908201526f155cd95c88139bdd08105b1b1bddd95960821b604082015260600190565b600082821015611d4157611d41611c99565b500390565b60008219821115611d5957611d59611c99565b500190565b6000816000190483118215151615611d7857611d78611c99565b500290565b600082611d9a57634e487b7160e01b600052601260045260246000fd5b50049056fea264697066735822122087b37694107f588d1b376f1a62f882e9934c94a10ff312e3b31f781518fc207e64736f6c63430008090033",
  "linkReferences": {},
  "deployedLinkReferences": {}
}